:0400000057EF01F0C5
:10000800F2A40BD0F294210E1926000E1A222752C0
:0C00180004E0210E1726000E1822110033
:0A002400210E0D6E0D2EFED7120006
:10002E000F0E0C6E470E0D6E0D2EFED70C2EFCD73E
:06003E00000000001200AA
:06004400000000001200A4
:10004A0057BE02D08A9601D08A8657BC02D08A94BB
:10005A0001D08A8457BA02D08A9201D08A8257B8CC
:10006A0002D08A9001D08A8036B002D08A8801D024
:10007A008A988A8AE2DF8A9A57B602D08A9601D08B
:10008A008A8657B402D08A9401D08A8457B202D0A1
:10009A008A9201D08A8257B002D08A9001D08A808F
:1000AA0036B002D08A8801D08A988A8AC6DF8A9AAC
:0C00BA0036A002D0B7DF01D0B0DF12008A
:0C00C600369056C057F0BEDF36801200A6
:1000D2000FD0800E516E19D0C00E516E16D0940EF4
:1000E200516E13D0D40E516E10D0800E516E0DD0C1
:1000F2005150010AEEE05150020AEEE05150030A5B
:10010200EEE05150040AEEE0F0D75204006E515076
:10011200002600C051F0368000C057F095DF3690BF
:0A01220053C057F091DF3680120041
:10012C00939A939893909392939493968A9A8A988D
:10013C008A968A948A928A9074DF73DF72DF8A823D
:10014C008A808A8A79DF8A9A6CDF8A8A75DF8A9A32
:10015C0068DF8A8A71DF8A9A64DF8A908A8A6CDF08
:10016C008A9A5FDF8A8A68DF8A9A8A928A868A8A62
:10017C0063DF8A9A56DF8A968A808A8A5DDF8A9A3A
:10018C008A908A8A59DF8A9A4CDF8A8A55DF8A9A42
:10019C008A808A8A51DF8A9A44DF8A908A8A4CDF65
:1001AC008A9A8A868A848A828A808A8A45DF8A9A8F
:0601BC0038DF368012005E
:1001C2000900F5CFE6FF0006FBE10106F9E11200A6
:1001D20061C0E1FF62C0E2FF300EE66E63C0E1FF84
:1001E20064C0E2FF300EE66E65C0E1FF66C0E2FF6A
:1001F200300EE66E67C0E1FF68C0E2FF300EE66EC9
:1002020069C0E1FF6AC0E2FF300EE66E6BC0E1FF3B
:100212006CC0E2FF300EE66E6DC0E1FF6EC0E2FF21
:10022200300EE66E6FC0E1FF70C0E2FF300EE66E88
:020232001200B8
:100234000FD0800E516E19D0C00E516E16D0940E90
:10024400516E13D0D40E516E10D0800E516E0DD05D
:100254005150010AEEE05150020AEEE05150030AF7
:10026400EEE05150040AEEE0F0D75204006E515013
:10027400002600C051F000C057F0E5DE3690556A04
:1002840055505324E96E000E5420EA6EEE520BE0F2
:1002940055505324E96E000E5420EA6EEECF56F00A
:0A02A40010DF552AEDD73680120056
:1002AE00B5EC02F0470EF66E050EF76E000EF86E08
:1002BE00370EE16E000EE26E1A0E006E010E016E2A
:1002CE0079DF946A956A8C6A8B6A0F01386BFF0E20
:1002DE00926EC70ED56EA00EF26E21DF010E576E16
:1002EE00ADDE0C0E576EAADE010E516E010E526E71
:1002FE00450E536E000E546E96DF010E576E9EDE47
:10030E00010E516E010E526E1B0E536E000E546E88
:10031E008ADF16501A5C02E11550195C20E3155065
:10032E00195E16501A5A372A800E3718006E800E34
:10033E00080A005C02E3080E375E610E3724F66E83
:10034E00050EF76E000E37BEFF0EF722000EF86E8A
:10035E00000E37BEFF0EF8220900F5CF8CFF355088
:10036E00185C02E13450175CD8A06CD03450175E84
:10037E003550185A3E2A3E503A0A5DE1300E3E6E16
:10038E003D2A3D503A0A50E1300E3D6E402A405013
:10039E003A0A43E1300E406E3F2A3F50360A36E1AC
:1003AE00300E3F6E422A42503A0A29E1300E426E1A
:1003BE00412A4150360A1CE1300E416E442A445007
:1003CE003A0A0FE1300E446E432A43503A0A02E1D4
:1003DE00300E436E010E516E010E526E43C053F03D
:1003EE0071DE010E516E020E526E44C053F06ADE83
:1003FE00010E516E040E526E41C053F063DE010EBB
:10040E00516E050E526E42C053F05CDE010E516EFF
:10041E00070E526E3FC053F055DE010E516E080EA0
:10042E00526E40C053F04EDE010E516E0A0E526EE9
:10043E003DC053F047DE010E516E0B0E526E3EC0A4
:10044E0053F040DE80A609D03B5207E1010E3B6E11
:10045E00640E1526000E162205D080B603D03B5230
:10046E00D8A43B6A80A809D03C5207E1010E3C6E2D
:10047E00640E155E000E165A05D080B803D03C529D
:10048E00D8A43C6A80A009D0385207E1010E386E1C
:10049E00010E276E396A3A6A3DD080A207D03952D2
:1004AE0005E1010E396E276A386A34D080A432D045
:1004BE003A5230E1010E3A6E3E0E0001616F000EAF
:1004CE00626F3D0E636F000E646F400E656F000E1F
:1004DE00666F3F0E676F000E686F420E696F000EFB
:1004EE006A6F410E6B6F000E6C6F440E6D6F000ED7
:1004FE006E6F430E6F6F000E706F64DE176A186AB0
:10050E00386A010E516E010E526E280E536E000E99
:08051E00546E89DEFED6FFD702
:10056A0010EE15F0210E006E010E016E260EF66ECB
:0E057A00050EF76E000EF86EE1EC00F01200B8
:02052600F401DE
:020528000000D1
:02052A000000CF
:0C052C0030303A30303A30303A30300095
:0105380000C2
:0C05390030303A30303A30303A30300088
:020545000A00AA
:0105470000B3
:0105480000B2
:0105490000B1
:01054A0000B0
:01054B0000AF
:01054C0000AE
:01054D00307D
:01054E00307C
:01054F00307B
:01055000307A
:010551003079
:010552003078
:010553003077
:010554003076
:0C05550068683A6D6D3A73733A63730086
:080561000081C3E7FFE7C3813D
:020000040030CA
:0D000100231F3CFFBF81FF0FC00FE00F4029
:00000001FF
