:04000000C8EF01F054
:10000800F2A40BD0F294210E1926000E1A222252C5
:0C00180004E0210E1726000E1822110033
:100024000F0E0C6E470E0D6E0D2EFED70C2EFCD748
:06003400000000001200B4
:0A003A00210E0D6E0D2EFED71200F0
:06004400000000001200A4
:10004A0045BE02D08A9601D08A8645BC02D08A94DF
:10005A0001D08A8445BA02D08A9201D08A8245B8F0
:10006A0002D08A9001D08A8025B002D08A8801D035
:10007A008A988A8AE2DF8A9A45B602D08A9601D09D
:10008A008A8645B402D08A9401D08A8445B202D0C5
:10009A008A9201D08A8245B002D08A9001D08A80A1
:1000AA0025B002D08A8801D08A988A8AC6DF8A9ABD
:0C00BA0025A002D0B2DF01D0BBDF120095
:1000C600086A096A100E0C6E0134083609360450A7
:1000D600085E0550D8A0053C095ED8B007D004508C
:1000E60008260550D8B0053C0926D89000360136BA
:0600F6000C2EEAD71200F7
:1000FC00426A050E425C0AE242504024E16E000E58
:10010C004120E26E200EE66E422AF3D74250402484
:10011C00E16E000E4120E26EE66A42064250402437
:10012C00436E000E4120446E0A0E046E000E056EE6
:10013C003EC000F03FC001F0C0DF08C000F009C0B5
:10014C0001F0300E002643C0E1FF44C0E2FF00C0C6
:10015C00E6FF0A0E046E000E056E3EC000F03FC0B6
:10016C0001F0ABDF00C03EF001C03FF0000E011803
:10017C0002E1000E001801E102D04206CFD71200B6
:0C018C0025903EC045F05BDF258012008E
:10019800939A939893909392939493968A9A8A9821
:1001A8008A968A948A928A9039DF38DF37DF8A8282
:1001B8008A808A8A43DF8A9A31DF8A8A3FDF8A9A6D
:1001C8002DDF8A8A3BDF8A9A29DF8A908A8A36DF7E
:1001D8008A9A24DF8A8A32DF8A9A8A928A868A8A67
:1001E8002DDF8A9A1BDF8A968A808A8A27DF8A9A75
:1001F8008A908A8A23DF8A9A11DF8A8A1FDF8A9A7D
:100208008A808A8A1BDF8A9A09DF8A908A8A16DF9F
:100218008A9A8A868A848A828A808A8A0FDF8A9A58
:06022800FDDE258012003E
:10022E000900F5CFE6FF0006FBE10106F9E1120039
:10023E003A6A3B6A34C03CF035C03DF0800E35184A
:10024E00006E800E005C02E1000E345C0BE2010ECB
:10025E003A6E000E3B6E345000083C6E35C03DF0D9
:10026E00000E3D563CC03EF03DC03FF036C040F063
:10027E0037C041F03CDF060E386E000E396E000EB0
:10028E00006E3950005C02E13850000819E2385017
:10029E003624E16E39503720E26E010E385C006E66
:1002AE00000E3958016E00503624E96E0150372089
:1002BE00EA6EEECFE6FF010E385E000E395ADFD73A
:1002CE0036C0E1FF37C0E2FF200EE66E3A503B101B
:1002DE001AE0386A396A38503624E96E39503720B8
:1002EE00EA6EEE50200A03E1384A392AF4D7010E9D
:1002FE00385E000E395A38503624E16E39503720A8
:08030E00E26E2D0EE66E1200F6
:100316000FD0800E346E19D0C00E346E16D0940EE7
:10032600346E13D0D40E346E10D0800E346E0DD0D1
:100336003450010AEEE03450020AEEE03450030A6B
:10034600EEE03450040AEEE0F0D73504006E345087
:10035600002600C034F000C045F074DE2590386AEF
:1003660038503624E96E000E3720EA6EEE520BE066
:1003760038503624E96E000E3720EA6EEECF3EF096
:0A03860002DF382AEDD725801200AF
:10039000A2EC02F02E6A2F6A306A316A326A336A3E
:1003A000946A956A8C6A8B6A0F01386B010E926EA3
:1003B000C70ED56EA00EF26EEFDE010E456E45DE65
:1003C0000C0E456E42DE010E346E010E356E1B0EB4
:1003D000366E000E376E9FDF266A346A356A270E46
:1003E000366E000E376E2BDF16501A5C02E1155088
:1003F000195C20E31550195E16501A5A2E2A800EE9
:100400002E18006E800E080A005C02E3080E2E5EB5
:100410003C0E2E24F66E050EF76E000E2EBEFF0E5D
:10042000F722000EF86E000E2EBEFF0EF822090015
:10043000F5CF8CFF2450185C02E12350175C21E3B8
:100440002350175E2450185A010E346E010E356E7B
:10045000270E366E000E376E5EDF262A800E006E87
:10046000800E010A005C02E1000E265CD8B0266A0C
:1004700026C034F0000E356E270E366E000E376E35
:10048000DEDE80A60AD03250000A07E1010E326E8D
:10049000640E1526000E162205D080B603D0325207
:1004A000D8A4326A80A80AD03350000A07E1010EAE
:1004B000336E640E155E000E165A05D080B803D058
:1004C0003352D8A4336A80A00AD02F50000A07E123
:1004D000010E2F6E010E226E306A316A25D080A285
:1004E00008D03050000A05E1010E306E226A2F6AF2
:1004F0001BD080A419D03150000A16E1010E316ED4
:10050000266A176A186A2F6A346A356A270E366EA9
:10051000000E376E94DE010E346E010E356E270E1E
:0C052000366E000E376EF7DE5FD7FFD797
:1005440010EE15F0100E006E010E016E2C0EF66EFC
:0E055400050EF76E000EF86E17EC01F01200A7
:02052C00F401D8
:02052E000000CB
:020530000000C9
:070532005374617274210093
:0105390000C1
:02053A00E803D4
:08053C000081C3E7FFE7C38162
:020000040030CA
:0D000100231F3CFFBF81FF0FC00FE00F4029
:00000001FF
