:0400000078EF02F0A3
:1000080000C017F001C016F002C015F0F2A42CD001
:10001800080E1F26000E20222E5202E0080E21266E
:100028002D5208E0080E2826000E2922C00E2B2685
:10003800000E2C222250231015E0080E225C016EBF
:10004800000E2358026E01C022F002C023F0800E79
:100058000218006E800E005C02E1000E015C02E2F4
:10006800226A236AF29426D09EA424D0BDA00AD086
:10007800BFCF62F00001616BBE506127000E6223A2
:10008800BD9017D00001BFCF01F0006A00C063F037
:1000980001C064F0BE500026000E012200C063F0CB
:1000A80001C064F06151005C1D6E625101581E6E02
:1000B800BD809E9417C000F016C001F015C002F074
:0200C800110025
:0C00CA00020E0D6E0D2EFED7000012007D
:1000D6003A0E0C6E230E0D6E0D2EFED70C2EFCD78F
:0200E600120006
:0A00E800850E0D6E0D2EFED71200DE
:1000F200086A096A100E0C6E01340836093604507B
:10010200085E0550D8A0053C095ED8B007D004505F
:1001120008260550D8B0053C0926D890003601368D
:060122000C2EEAD71200CA
:10012800000194BF02D08A9601D08A8694BD02D07D
:100138008A9401D08A8494BB02D08A9201D08A82A0
:1001480094B902D08A9001D08A805FB002D08A88A0
:1001580001D08A988A8AB5DF8A9A94B702D08A969B
:1001680001D08A8694B502D08A9401D08A8494B347
:1001780002D08A9201D08A8294B102D08A9001D0AA
:100188008A805FB002D08A8801D08A988A8A99DFEB
:0E0198008A9A5FA002D09BDF01D0A2DF120086
:1001A6000001916B050E915D0AE291518F25E16E7A
:1001B600000E9021E26E200EE66E912BF3D7915140
:1001C6008F25E16E000E9021E26EE66A910791514D
:1001D6008F25926F000E9021936F0A0E046E000E0B
:1001E600056E8DC000F08EC001F080DF08C000F003
:1001F60009C001F0300E002692C0E1FF93C0E2FF75
:1002060000C0E6FF0A0E046E000E056E8DC000F0FB
:100216008EC001F06BDF00C08DF001C08EF0000EC5
:10022600011802E1000E001801E102D09107CFD7B4
:020236001200B4
:0C0238005F908DC094F074DF5F801200B6
:100244000001896B8A6B83C08BF084C08CF0800EB4
:100254008419006E800E005C02E1000E835D0BE2E7
:10026400010E896F000E8A6F835100088B6F84C062
:100274008CF0000E8C578BC08DF08CC08EF085C036
:100284008FF086C090F08DDF060E876F000E886FAA
:10029400000E006E8851005C02E18751000819E2EB
:1002A40087518525E16E88518621E26E010E875DB6
:1002B400006E000E8859016E00508525E96E0150CC
:1002C4008621EA6EEECFE6FF010E875F000E885BA3
:1002D400DFD785C0E1FF86C0E2FF200EE66E8951BC
:1002E4008A111AE0876B886B87518525E96E8851DE
:1002F4008621EA6EEE50200A03E1874B882BF4D75F
:10030400010E875F000E885B87518525E16E885159
:0A0314008621E26E2D0EE66E120047
:10031E000900F5CFE6FF0006FBE10106F9E1120048
:10032E00939A939893909392939493968A9A8A9889
:10033E008A968A948A928A90C7DEC6DEC5DE8A8243
:10034E008A808A8ABBDE8A9ABFDE8A8AB7DE8A9A5A
:10035E00BBDE8A8AB3DE8A9AB7DE8A908A8AAEDEDE
:10036E008A9AB2DE8A8AAADE8A9A8A928A868A8ACB
:10037E00A5DE8A9AA9DE8A968A808A8A9FDE8A9A62
:10038E008A908A8A9BDE8A9A9FDE8A8A97DE8A9A6A
:10039E008A808A8A93DE8A9A97DE8A908A8A8EDE8D
:1003AE008A9A8A868A848A828A808A8A87DE8A9A4A
:0603BE008BDE5F801200DF
:1003C40010D0800E0001836F1AD0C00E836F17D037
:1003D400940E836F14D0D40E836F11D0800E836F6C
:1003E4000ED000018351010AECE08351020AEDE0D2
:1003F4008351030AEDE08351040AEDE0EFD784054D
:10040400006E8351002600C083F000C094F08ADEA1
:100414005F90876B87518525E96E000E8621EA6E11
:10042400EE520BE087518525E96E000E8621EA6EB7
:0E043400EECF8DF0FFDE872BEDD75F8012003C
:1004420083C004F084C005F004C0E9FF05C0EAFFE0
:10045200EE5203E0044A052AF7D704C002F005C0B1
:1004620003F0044A052A85C000F086C001F00001AD
:10047200854B862B00C0E9FF01C0EAFF02C0E1FF05
:1004820003C0E2FFEECFE6FF02C0E9FF03C0EAFFCE
:10049200EE5201E0E2D783C000F084C001F0120006
:1004A20083C004F084C005F004C002F005C003F06C
:1004B200044A052A85C000F086C001F00001854B80
:1004C200862B00C0E9FF01C0EAFF02C0E1FF03C0C2
:1004D200E2FFEECFE6FF02C0E9FF03C0EAFFEE5201
:0E04E20001E0E2D783C000F084C001F01200F8
:1004F00043EC05F000017D6B7E6B010E7F6F806B1E
:10050000816B826BFF0E926EC00E0F01386FBF0EB3
:10051000946E080E3A6F8C6A956A030ECD6E050EC6
:10052000BD6E496B9E6A9D84C70ED56EE00EF26E5D
:10053000FEDE010E0001946FF7DD0C0E946FF4DD0A
:100540008B9C8C6A801D006E00508014016E01A08F
:1005500005D0010E2D6E010E2E6E8081801D006E65
:1005600000508014016E01A203D02D6A2E6A808390
:10057000801D006E00508014016E01A40CD0F29E0C
:100580002B6A2C6A286A296AF28E2A6A2F6A4D6AB7
:10059000010E7F6F8085801D006E00508014016EFB
:1005A00001A619D0320E1B24016E000E1C20026E13
:1005B00001C01BF002C01CF0800E030A006E800E0A
:1005C0000218005C02E10150E80804E2E80E1B6E2C
:1005D000030E1C6E8087801D006E00508014016E1B
:1005E00001A818D0320E1B5C016E000E1C58026E62
:1005F00001C01BF002C01CF0800E0218006E800EBD
:10060000005C02E1320E015C04E2320E1B6E000E51
:100610001C6E808980AA09D0F29E24C022F025C0D9
:1006200023F0F28E010E7F6F8B8C80508017F29E2C
:100630001C50205C02E11B501F5C3EE3F29E1B50ED
:100640001F5E1C50205AF28E26D08C6A010E7D6FE0
:10065000010E7E6F30D0810E8C6E7D5302E07E2BBA
:1006600001D07E0728D0C30E8C6E7D5302E07E2B16
:1006700001D07E0720D0E70E8C6E7D5302E07E2BEA
:1006800001D07E0718D0FF0E8C6E7D6B7E0713D0D5
:100690007E6B7D6B10D07E51000AD7E07E51010A3F
:1006A000DAE07E51020ADFE07E51030AE4E07E5187
:1006B000040AE9E0EDD7BCD7F29E000E1E1802E155
:1006C000000E1D1811E01DC081F01EC082F08233A3
:1006D0008133829F82338133829F82338133829F31
:1006E0001D6A1E6A010E7F6FF28EF29E7F5304E137
:1006F0002150185C01E3A0D1216AF29E030E2C5C0C
:1007000002E1E80E2B5C07E3E80E2B5E030E2C5A89
:10071000284A292AF3D7030E295C02E1E80E285C57
:1007200006E3E80E285E030E295A2A2AF4D7F28E31
:100730003C0E2A5C04E33C0E2A5E2F2AF9D73C0EBD
:100740002F5C04E33C0E2F5E4D2AF9D7180E4D5C4A
:1007500002E34D6AFBD74DC083F0000E846F760E26
:10076000856F000E866F6EDD606B800E60BF7F0E42
:10077000006E800E000A005C02E1030E605D1DE267
:10078000760EE16E000EE26E6051E126000E60BF53
:10079000FF0EE222040E6025006E000E60BFFF0E09
:1007A000016E000E0122760E0024E96E000E01207B
:1007B000EA6EEECFE6FF602BD8D77651200A02E131
:1007C000300E766F650E836F000E846F760E856F28
:1007D000000E866F66DE650E836F000E846F190E45
:1007E000856F000E866F2DDE2FC083F0000E846FA4
:1007F000760E856F000E866F25DD606B800E60BF04
:100800007F0E006E800E000A005C02E1030E605D48
:100810001DE2760EE16E000EE26E6051E126000EE2
:1008200060BFFF0EE222040E6025006E000E60BF66
:10083000FF0E016E000E0122760E0024E96E000EFE
:100840000120EA6EEECFE6FF602BD8D77651200A62
:1008500002E1300E766F650E836F000E846F760EA8
:10086000856F000E866FEDDD650E836F000E846F61
:10087000260E856F000E866FE4DD2AC083F0000E21
:10088000846F760E856F000E866FDCDC606B800EE9
:1008900060BF7F0E006E800E000A005C02E1030E56
:1008A000605D1DE2760EE16E000EE26E6051E126A3
:1008B000000E60BFFF0EE222040E6025006E000EE7
:1008C00060BFFF0E016E000E0122760E0024E96E5D
:1008D000000E0120EA6EEECFE6FF602BD8D77651EE
:1008E000200A02E1300E766F650E836F000E846F72
:1008F000760E856F000E866FA4DD650E836F000E89
:10090000846F3B0E856F000E866F9BDDF29E28C0C4
:1009100083F029C084F0760E856F000E866F92DC1E
:10092000F28E606B800E60BF7F0E006E800E000A3C
:10093000005C02E1040E605D1DE2760EE16E000EC9
:10094000E26E6051E126000E60BFFF0EE222030E50
:100950006025006E000E60BFFF0E016E000E0122CA
:10096000760E0024E96E000E0120EA6EEECFE6FF5F
:10097000602BD8D77651200A02E1300E766F77517E
:10098000200A02E1300E776F650E836F000E846FD0
:10099000760E856F000E866F54DD010E836F010E9B
:1009A000846F650E856F000E866F0CDDF29E2250FF
:1009B000231033E0F28E8151821125E081C083F053
:1009C00082C084F0760E856F000E866F3BDC650E6C
:1009D000836F000E846F300E856F000E866F61DDB1
:1009E000650E836F000E846F760E856F000E866F26
:1009F00028DD020E836F010E846F650E856F000E79
:100A0000866FE0DC09D0020E836F010E846F3D0E0D
:100A1000856F000E866FD6DC0DD0F28E816B826BF7
:100A20008B9C020E836F010E846F4E0E856F000E3D
:0E0A3000866FC8DCF28E7F6BF28E84D5FFD706
:100A860010EE18F0470E006E010E016E3E0EF66E69
:0E0A96000A0EF76E000EF86E8FEC01F01200E3
:010A3E004275
:020A3F003A007B
:020A4100F401BE
:020A43000000B1
:020A45000000AF
:010A470000AE
:020A48000000AC
:020A4A00E803BF
:020A4C003A006E
:020A4E000000A6
:010A500000A5
:020A51000000A3
:010A530000A2
:010A540000A1
:010A550000A0
:0B0A56004343505B6D6D5D203D2000B0
:020A61003A0059
:100A630057616974696E6720434350202E2E2E0010
:010A73000082
:100A7400507265737320524135202020202020209D
:010A84000071
:020000040030CA
:0D000100331F3CFFBF81FF0FC00FE00F4019
:00000001FF
