:0400000053EF02F0C8
:10000800F2A411D0210E1726000E1822155204E072
:10001800210E1B26000E1C22165204E0210E192662
:08002800000E1A22F2941100EF
:06003000000000001200B8
:10003600086A096A100E0C6E013408360936045037
:10004600085E0550D8A0053C095ED8B007D004501C
:1000560008260550D8B0053C0926D890003601364A
:060066000C2EEAD7120087
:0A006C00210E0D6E0D2EFED71200BE
:100076000F0E0C6E470E0D6E0D2EFED70C2EFCD7F6
:0600860000000000120062
:10008C004A6A050E4A5C0AE24A504824E16E000EA8
:10009C004920E26E200EE66E4A2AF3D74A504824D5
:1000AC00E16E000E4920E26EE66A4A064A50482488
:1000BC004B6E000E49204C6E0A0E046E000E056E3F
:1000CC0046C000F047C001F0B0DF08C000F009C026
:1000DC0001F0300E00264BC0E1FF4CC0E2FF00C027
:1000EC00E6FF0A0E046E000E056E46C000F047C017
:1000FC0001F09BDF00C046F001C047F0000E011874
:10010C0002E1000E001801E102D04A06CFD712001E
:10011C0046BE02D08A9601D08A8646BC02D08A940A
:10012C0001D08A8446BA02D08A9201D08A8246B81B
:10013C0002D08A9001D08A801DB002D08A8801D06A
:10014C008A988A8A6FDF8A9A46B602D08A9601D03C
:10015C008A8646B402D08A9401D08A8446B202D0F0
:10016C008A9201D08A8246B002D08A9001D08A80CD
:10017C001DB002D08A8801D08A988A8A53DF8A9A65
:0C018C001DA002D072DF01D06BDF12005A
:0C0198001D903CC046F0BEDF1D80120030
:1001A400426A436A3CC044F03DC045F0800E3D18AD
:1001B400006E800E005C02E1000E3C5C0BE2010E5E
:1001C400426E000E436E3C500008446E3DC045F044
:1001D400000E455644C046F045C047F03EC048F0C6
:1001E4003FC049F051DF060E406E000E416E000E16
:1001F400006E4150005C02E14050000819E240509A
:100204003E24E16E41503F20E26E010E405C006EE0
:10021400000E4158016E00503E24E96E01503F200B
:10022400EA6EEECFE6FF010E405E000E415ADFD7C4
:100234003EC0E1FF3FC0E2FF200EE66E4250431095
:100244001AE0406A416A40503E24E96E41503F2022
:10025400EA6EEE50200A03E1404A412AF4D7010E27
:10026400405E000E415A40503E24E16E41503F2012
:08027400E26E2D0EE66E120091
:10027C00939A939893909392939493968A9A8A983C
:10028C008A968A948A928A90F0DEEFDEEEDE8A827B
:10029C008A808A8AC7DE8A9AE8DE8A8AC3DE8A9ACC
:1002AC00E4DE8A8ABFDE8A9AE0DE8A908A8ABADE27
:1002BC008A9ADBDE8A8AB6DE8A9A8A928A868A8A49
:1002CC00B1DE8A9AD2DE8A968A808A8AABDE8A9AD4
:1002DC008A908A8AA7DE8A9AC8DE8A8AA3DE8A9ADC
:1002EC008A808A8A9FDE8A9AC0DE8A908A8A9ADEFF
:1002FC008A9A8A868A848A828A808A8A93DE8A9AF1
:06030C00B4DE1D801200AA
:100312000900F5CFE6FF0006FBE10106F9E1120054
:100322000FD0800E2D6E19D0C00E2D6E16D0940EE9
:100332002D6E13D0D40E2D6E10D0800E2D6E0DD0DA
:100342002D50010AEEE02D50020AEEE02D50030A74
:10035200EEE02D50040AEEE0F0D72E04006E2D5090
:10036200002600C02DF000C046F0D7DE1D90316A95
:1003720031502F24E96E000E3020EA6EEE520BE06F
:1003820031502F24E96E000E3020EA6EEECF3CF0A1
:0A03920002DF312AEDD71D801200B2
:10039C0031C03CF0000E3D6E350E3E6E000E3F6ED1
:1003AC00FBDE2DC001F02EC002F03950200A03E113
:1003BC00300E326E02D039C032F001C0E1FF02C003
:1003CC00E2FF32C0E6FF010E2D24E16E000E2E205E
:1003DC00E26E3AC0E6FF020E2D24E16E000E2E20D6
:1003EC00E26E3A0EE66E30C03CF0000E3D6E350EFD
:1003FC003E6E000E3F6ED0DE030E2D24016E000EFD
:10040C002E20026E3950200A03E1300E336E02D0DA
:10041C0039C033F001C0E1FF02C0E2FF33C0E6FF98
:10042C00040E2D24E16E000E2E20E26E3AC0E6FF83
:10043C00050E2D24E16E000E2E20E26E3A0EE66EB5
:10044C002FC03CF0000E3D6E350E3E6E000E3F6E22
:10045C00A3DE060E2D24016E000E2E20026E3950E6
:10046C00200A03E1300E346E02D039C034F001C0E2
:10047C00E1FF02C0E2FF34C0E6FF070E2D24E16E5F
:10048C00000E2E20E26E3AC0E6FF080E2D24E16E1F
:0A049C00000E2E20E26EE66A120048
:1004A600156A166A286A296A2A6A2B6A2C6A620EF3
:1004B600D36E956A8C6AC70ED56EF28AF294DBDE2D
:1004C600010E466E28DE0C0E466E25DEF28E030EFB
:1004D600185C02E1E80E175C14E3282A28C08CFF9A
:1004E600E80E175E030E185A3C0E285C02E3292A12
:1004F600286A3C0E295C02E32A2A296A010E2B6E21
:10050600E6D72B5215E01E0E2D6E000E2E6E28C05D
:100516002FF029C030F02AC031F03DDF010E2D6EDC
:10052600050E2E6E1E0E2F6E000E306EF7DE2B6A37
:10053600155207E181CF27F01B6A1C6A010E156E62
:100546005FD0000E006E1C50005C02E11B501E08BE
:1005560057E22C1C006E00502714016E01AE0FD01E
:100566002C1C006E00502714016E01AC08D0C00E82
:100576002C122A2AC00E166E010E2B6E1BD02C1CB6
:10058600006E00502714016E01AE07D02C8E292A6A
:10059600800E166E010E2B6E0DD02C1C006E0050B8
:1005A6002714016E01AC06D02C8C282A400E166E3C
:1005B600010E2B6E81502C14006E00C02CF0001E14
:1005C6001650001604E0166A196A1A6A18D0010E47
:1005D6001A5C02E1F40E195C12E3F40E195E010EC8
:1005E6001A5A010E2B6E16AE04D016AC02D02A2A69
:1005F60006D016AE02D0292A02D016BC282A156AC1
:0406060066D7FFD7DD
:020000040030CA
:0D000100281F3CFFBF81FF0FC00FE00F4024
:00000001FF
