:1000000019EF02F00000000000EF00F00000000017
:0A0010000000000000000000F3D71C
:06001C00000000001200CC
:100022000F0E0C6E470E0D6E0D2EFED70C2EFCD74A
:06003200000000001200B6
:0A003800210E0D6E0D2EFED71200F2
:10004200086A096A100E0C6E01340836093604502B
:10005200085E0550D8A0053C095ED8B007D0045010
:1000620008260550D8B0053C0926D890003601363E
:060072000C2EEAD712007B
:1000780049BE02D08A9601D08A8649BC02D08A94A9
:1000880001D08A8449BA02D08A9201D08A8249B8BA
:1000980002D08A9001D08A801CB002D08A8801D010
:1000A8008A988A8AB7DF8A9A49B602D08A9601D096
:1000B8008A8649B402D08A9401D08A8449B202D08F
:1000C8008A9201D08A8249B002D08A9001D08A806F
:1000D8001CB002D08A8801D08A988A8A9BDF8A9AC3
:0C00E8001CA002D09ADF01D0A3DF1200A0
:0C00F4001C9042C049F0BEDF1C801200CE
:10010000466A050E465C0AE246504424E16E000E43
:100110004520E26E200EE66E462AF3D74650442470
:10012000E16E000E4520E26EE66A46064650442423
:10013000476E000E4520486E0A0E046E000E056ED6
:1001400042C000F043C001F07CDF08C000F009C0ED
:1001500001F0300E002647C0E1FF48C0E2FF00C0BA
:10016000E6FF0A0E046E000E056E42C000F043C0AA
:1001700001F067DF00C042F001C043F0000E01183B
:1001800002E1000E001801E102D04606CFD71200AE
:1001900038C004F039C005F004C002F005C003F017
:1001A000044A052A3AC000F03BC001F03A4A3B2A13
:1001B00000C0E9FF01C0EAFF02C0E1FF03C0E2FFA7
:1001C000EECFE6FF02C0E9FF03C0EAFFEE5201E016
:0C01D000E3D738C000F039C001F0120085
:1001DC000900F5CFE6FF0006FBE10106F9E112008C
:1001EC00939A939893909392939493968A9A8A98CD
:1001FC008A968A948A928A900EDF0DDF0CDF8A82AF
:10020C008A808A8A05DF8A9A06DF8A8A01DF8A9ABF
:10021C0002DF8A8AFDDE8A9AFEDE8A908A8AF8DEFE
:10022C008A9AF9DE8A8AF4DE8A9A8A928A868A8A7D
:10023C00EFDE8A9AF0DE8A968A808A8AE9DE8A9ACA
:10024C008A908A8AE5DE8A9AE6DE8A8AE1DE8A9AD2
:10025C008A808A8ADDDE8A9ADEDE8A908A8AD8DEF5
:10026C008A9A8A868A848A828A808A8AD1DE8A9A43
:06027C00D2DE1C8012001E
:100282000FD0800E386E19D0C00E386E16D0940E74
:10029200386E13D0D40E386E10D0800E386E0DD05A
:1002A2003850010AEEE03850020AEEE03850030AF4
:1002B200EEE03850040AEEE0F0D73904006E385010
:1002C200002600C038F000C049F0D5DE1C903C6A20
:1002D2003C503A24E96E000E3B20EA6EEE520BE0EF
:1002E2003C503A24E96E000E3B20EA6EEECF42F01B
:0A02F20000DF3C2AEDD71C8012004B
:1002FC0038C004F039C005F004C0E9FF05C0EAFFBE
:10030C00EE5203E0044A052AF7D704C002F005C0F8
:10031C0003F0044A052A3AC000F03BC001F03A4A07
:10032C003B2A00C0E9FF01C0EAFF02C0E1FF03C0A5
:10033C00E2FFEECFE6FF02C0E9FF03C0EAFFEE5298
:0E034C0001E0E3D738C000F039C001F0120024
:10035A003E6A3F6A38C040F039C041F0800E391811
:10036A00006E800E005C02E1000E385C0BE2010EAA
:10037A003E6E000E3F6E38500008406E39C041F0A4
:10038A00000E415640C042F041C043F03AC044F02A
:10039A003BC045F0B0DE060E3C6E000E3D6E000E10
:1003AA00006E3D50005C02E13C50000819E23C50EE
:1003BA003A24E16E3D503B20E26E010E3C5C006E39
:1003CA00000E3D58016E00503A24E96E01503B2060
:1003DA00EA6EEECFE6FF010E3C5E000E3D5ADFD715
:1003EA003AC0E1FF3BC0E2FF200EE66E3E503F10EE
:1003FA001AE03C6A3D6A3C503A24E96E3D503B2083
:10040A00EA6EEE50200A03E13C4A3D2AF4D7010E77
:10041A003C5E000E3D5A3C503A24E16E3D503B2072
:08042A00E26E2D0EE66E1200D9
:10043200430E156E6F0E166E6E0E176E740E186EDC
:10044200200E196E3D0E1A6E1B6A356A366A376ABD
:100452000F01389738953893956A8C6AC6DE010E7B
:10046200496E09DE0C0E496E06DE361C006E005027
:100472008014016E01A208D035500008D8A03506BC
:100482003682010E376E1AD0361C006E0050801470
:10049200016E01A405D0356A3684010E376E0ED086
:1004A200361C006E00508014016E01A607D0FF0EAC
:1004B200355CD8A0352A3686010E376E8050361646
:1004C200375227E035C08CFF1D0E386E000E396E94
:1004D200150E3A6E000E3B6E5ADE35C038F0000E35
:1004E200396E2E0E3A6E000E3B6E36DF1D0E386EE2
:1004F200000E396E2E0E3A6E000E3B6EFEDE010EBF
:10050200386E010E396E1D0E3A6E000E3B6EB8DE6D
:06051200376AABD7FFD7EA
:020000040030CA
:0D000100231F3CFFBF81FF0FC00FE00F4029
:00000001FF
