:100000000EEF00F00000000000EF00F00000000024
:0A0010000000000000000000F3D71C
:10001C00F00E9616090E8D6E8D96060E0B6E130E47
:10002C000C6EAD0E0D6E0D2EFED70C2EFCD70B2EBE
:10003C00FAD7000000000A0E8D6E060E0B6E130E22
:10004C000C6EAD0E0D6E0D2EFED70C2EFCD70B2E9E
:10005C00FAD7000000000B0E8D6E060E0B6E130E01
:10006C000C6EAD0E0D6E0D2EFED70C2EFCD70B2E7E
:0E007C00FAD700000000030E8D6ECFD7FFD71D
:020000040030CA
:0D000100231F3CFFBF81FF0FC00FE00F4029
:00000001FF
