:0400000071EF02F0AA
:1000080000C017F001C016F002C015F09EAC04D075
:10001800010E4D6E9E9C20D09EA41ED0BDA00CD07B
:10002800BFCF01F0006ABE5000104E6E01C04FF005
:10003800000E4F12BD900FD0BDB00DD0BFCF01F054
:10004800006ABE500010506E01C051F0000E5112EF
:10005800BD80010E226E9E9417C000F016C001F0FC
:0600680015C002F01100BA
:0A006E00210E0D6E0D2EFED71200BC
:100078000F0E0C6E470E0D6E0D2EFED70C2EFCD7F4
:0600880000000000120060
:06008E000000000012005A
:10009400086A096A100E0C6E0134083609360450D9
:1000A400085E0550D8A0053C095ED8B007D00450BE
:1000B40008260550D8B0053C0926D89000360136EC
:0600C4000C2EEAD7120029
:1000CA0000017EBF02D08A9601D08A867EBD02D008
:1000DA008A9401D08A847EBB02D08A9201D08A8215
:1000EA007EB902D08A9001D08A8052B002D08A8822
:1000FA0001D08A988A8AC6DF8A9A7EB702D08A96FF
:10010A0001D08A867EB502D08A9401D08A847EB3D1
:10011A0002D08A9201D08A827EB102D08A9001D01E
:10012A008A8052B002D08A8801D08A988A8AAADF45
:0E013A008A9A52A002D09BDF01D094DF1200FF
:0C014800529077C07EF0BDDF52801200A4
:1001540000017B6B050E7B5D0AE27B517925E16E24
:10016400000E7A21E26E200EE66E7B2BF3D77B51D4
:100174007925E16E000E7A21E26EE66A7B077B51F7
:1001840079257C6F000E7A217D6F0A0E046E000EB5
:10019400056E77C000F078C001F07ADF08C000F087
:1001A40009C001F0300E00267CC0E1FF7DC0E2FFF3
:1001B40000C0E6FF0A0E046E000E056E77C000F064
:1001C40078C001F065DF00C077F001C078F0000E60
:1001D400011802E1000E001801E102D07B07CFD71D
:0201E400120007
:1001E6000B6A0A6A096A00500402F4CF09F0F3CFD9
:1001F60008F001500502F4CF0BF0F3CF0AF00050DF
:100206000502F3500926F4500A22E86A0B2201502F
:100216000402F3500926F4500A22E86A0B2208C0A9
:1002260000F009C001F00AC002F00BC003F0120092
:1002360010D0800E00016D6F1AD0C00E6D6F17D0F2
:10024600940E6D6F14D0D40E6D6F11D0800E6D6F3D
:100256000ED000016D51010AECE06D51020AEDE08D
:100266006D51030AEDE06D51040AEDE0EFD76E051E
:10027600006E6D51002600C06DF000C07EF022DFDA
:100286005290716B71516F25E96E000E7021EA6E06
:10029600EE520BE071516F25E96E000E7021EA6E89
:0E02A600EECF77F04EDF712BEDD752801200B5
:1002B400939A939893909392939493968A9A8A9804
:1002C4008A968A948A928A90D5DED4DED3DE8A8294
:1002D4008A808A8ADADE8A9ACDDE8A8AD6DE8A9A89
:1002E400C9DE8A8AD2DE8A9AC5DE8A908A8ACDDEFF
:1002F4008A9AC0DE8A8AC9DE8A9A8A928A868A8A19
:10030400C4DE8A9AB7DE8A968A808A8ABEDE8A9A90
:100314008A908A8ABADE8A9AADDE8A8AB6DE8A9A98
:100324008A808A8AB2DE8A9AA5DE8A908A8AADDEBB
:100334008A9A8A868A848A828A808A8AA6DE8A9AA5
:0603440099DE5280120058
:10034A000900F5CFE6FF0006FBE10106F9E112001C
:10035A006DC004F06EC005F004C0E9FF05C0EAFFF5
:10036A00EE5203E0044A052AF7D704C002F005C09A
:10037A0003F0044A052A6FC000F070C001F00001C2
:10038A006F4B702B00C0E9FF01C0EAFF02C0E1FF1A
:10039A0003C0E2FFEECFE6FF02C0E9FF03C0EAFFB7
:1003AA00EE5201E0E2D76DC000F06EC001F012001B
:1003BA000001736B746B6DC075F06EC076F0800EC1
:1003CA006E19006E800E005C02E1000E6D5D0BE29C
:1003DA00010E736F000E746F6D510008756F6EC059
:1003EA0076F0000E765775C077F076C078F06FC059
:1003FA0079F070C07AF0A9DE060E716F000E726F86
:10040A00000E006E7251005C02E17151000819E29F
:10041A0071516F25E16E72517021E26E010E715DAC
:10042A00006E000E7259016E00506F25E96E015080
:10043A007021EA6EEECFE6FF010E715F000E725B6D
:10044A00DFD76FC0E1FF70C0E2FF200EE66E735186
:10045A0074111AE0716B726B71516F25E96E7251EA
:10046A007021EA6EEE50200A03E1714B722BF4D729
:10047A00010E715F000E725B71516F25E16E725150
:0A048A007021E26E2D0EE66E1200E6
:100494006DC004F06EC005F004C002F005C003F0A6
:1004A400044A052A6FC000F070C001F000016F4BD0
:1004B400702B00C0E9FF01C0EAFF02C0E1FF03C0E6
:1004C400E2FFEECFE6FF02C0E9FF03C0EAFFEE520F
:0E04D40001E0E2D76DC000F06EC001F0120032
:1004E2003BEC03F0CD9ECD9CCD82CD80CD9ACD88C4
:1004F2000F013A95948494863A87050EBD6E49930E
:1005020049919D849E94949C8B8C3D0EC26E210ECB
:10051200C06E9D8C9E9CF28CCCDE010E00017E6F23
:10052200D3DD0C0E7E6FD0DD020E6D6F010E6E6F8D
:10053200330E6F6F000E706F7DDE010E6D6F010E58
:100542006E6F230E6F6F000E706F74DEF28EC282BA
:100552004D5248E0C4CF53F0000E546E53365390C0
:100562005436533653905436060E016EC3CF00F004
:10057200015004E00032009EFF0FFBD700505312DF
:10058200000E5412550E6D6F000E6E6F430E6F6F9C
:10059200000E706F7EDF53C000F054C001F0050EF4
:1005A200046E000E056E1EDE00C06DF001C06EF01E
:1005B200660E6F6F000E706FFFDE550E6D6F000ED0
:1005C2006E6F660E6F6F000E706FC6DE010E6D6F7E
:1005D200010E6E6F550E6F6F000E706F2BDE4D6A3F
:1005E200C2822BD0225229E0550E6D6F000E6E6F23
:1005F200180E6F6F000E706F4CDF50C06DF051C05F
:100602006EF04E506D5F4F506E5B660E6F6F000E58
:10061200706FD2DE550E6D6F000E6E6F660E6F6FCD
:10062200000E706F99DE020E6D6F010E6E6F550E29
:0E0632006F6F000E706FFEDD226A8AD7FFD751
:1006760010EE18F0360E006E010E016E400EF66E8C
:0E068600060EF76E000EF86EA5EC01F01200E5
:0A06400050574F5B6D6D5D203D00CB
:01064A0000AF
:10064B0057616974696E6720414443202E2E2E003A
:10065B0057616974696E6720434350202E2E2E001C
:0A066B0041564F5B6D6D5D203D00B0
:010675000084
:020000040030CA
:0D000100231F3CFFBF81FF0FC00FE00F4029
:00000001FF
