:04000000C1EF02F05A
:1000080000C018F001C017F002C016F003C015F0C8
:100018009EA00AD0420E5726000E5822420E1B26DA
:10002800000E1C229E9066D09EA41FD09E94BDA058
:100038000CD0BFCF01F0006ABE5000105B6E01C04B
:100048005CF0000E5C12BD900FD0BDB00DD0BFCFDC
:1000580001F0006ABE5000105D6E01C05EF0000E37
:100068005E12BD80010E4B6E45D09EAC1FD09E9C8B
:10007800C4CF02F0000E036E023602900336023639
:1000880002900336060E016EC3CF00F0015004E063
:100098000032009EFF0FFBD700500210296E03C0EC
:1000A8002AF0000E2A12010E1D6E24D0F2A022D0D2
:1000B80081AE0FD0640E595E000E5A5A000E5A5C7B
:1000C80002E1640E595C04E2640E596E000E5A6E29
:1000D80010D081AC0ED0640E5926000E5A225A5008
:1000E800070802E15950D00804E2D00E596E070EF5
:1000F8005A6EF29018C000F017C001F016C002F056
:0601080015C003F0110018
:0A010E00210E0D6E0D2EFED712001B
:100118000F0E0C6E470E0D6E0D2EFED70C2EFCD753
:06012800000000001200BF
:06012E00000000001200B9
:10013400086A096A100E0C6E013408360936045038
:10014400085E0550D8A0053C095ED8B007D004501D
:1001540008260550D8B0053C0926D890003601364B
:060164000C2EEAD7120088
:10016A0000018ABF02D08A9601D08A868ABD02D04F
:10017A008A9401D08A848ABB02D08A9201D08A8268
:10018A008AB902D08A9001D08A805FB002D08A8868
:10019A0001D08A988A8AC6DF8A9A8AB702D08A9652
:1001AA0001D08A868AB502D08A9401D08A848AB319
:1001BA0002D08A9201D08A828AB102D08A9001D072
:1001CA008A805FB002D08A8801D08A988A8AAADF98
:0E01DA008A9A5FA002D09BDF01D094DF120052
:1001E8000001876B050E875D0AE287518525E16E60
:1001F800000E8621E26E200EE66E872BF3D787511C
:100208008525E16E000E8621E26EE66A8707875132
:100218008525886F000E8621896F0A0E046E000EF0
:10022800056E83C000F084C001F080DF08C000F0D4
:1002380009C001F0300E002688C0E1FF89C0E2FF46
:1002480000C0E6FF0A0E046E000E056E83C000F0C3
:1002580084C001F06BDF00C083F001C084F0000EA1
:10026800011802E1000E001801E102D08707CFD77C
:02027800120072
:0C027A005F9083C08AF074DF5F80120088
:1002860079C004F07AC005F004C0E9FF05C0EAFFB2
:10029600EE5203E0044A052AF7D704C002F005C06F
:1002A60003F0044A052A7BC000F07CC001F000017F
:1002B6007B4B7C2B00C0E9FF01C0EAFF02C0E1FFD7
:1002C60003C0E2FFEECFE6FF02C0E9FF03C0EAFF8C
:1002D600EE5201E0E2D779C000F07AC001F01200D8
:1002E60010D0800E0001796F1AD0C00E796F17D02A
:1002F600940E796F14D0D40E796F11D0800E796F69
:100306000ED000017951010AECE07951020AEDE0C4
:100316007951030AEDE07951040AEDE0EFD77A0549
:10032600006E7951002600C079F000C08AF01ADF0D
:100336005F907D6B7D517B25E96E000E7C21EA6E18
:10034600EE520BE07D517B25E96E000E7C21EA6EB4
:0E035600EECF83F08FDF7D2BEDD75F8012009E
:10036400939A939893909392939493968A9A8A9853
:100374008A968A948A928A90CDDECCDECBDE8A82FB
:100384008A808A8AD2DE8A9AC5DE8A8ACEDE8A9AF0
:10039400C1DE8A8ACADE8A9ABDDE8A908A8AC5DE6E
:1003A4008A9AB8DE8A8AC1DE8A9A8A928A868A8A78
:1003B400BCDE8A9AAFDE8A968A808A8AB6DE8A9AF8
:1003C4008A908A8AB2DE8A9AA5DE8A8AAEDE8A9A00
:1003D4008A808A8AAADE8A9A9DDE8A908A8AA5DE23
:1003E4008A9A8A868A848A828A808A8A9EDE8A9AFD
:0603F40091DE5F801200A3
:1003FA000900F5CFE6FF0006FBE10106F9E112006C
:10040A000B6A0A6A096A00500402F4CF09F0F3CFB2
:10041A0008F001500502F4CF0BF0F3CF0AF00050B8
:10042A000502F3500926F4500A22E86A0B22015009
:10043A000402F3500926F4500A22E86A0B2208C083
:10044A0000F009C001F00AC002F00BC003F012006C
:10045A0000017F6B806B79C081F07AC082F0800ED8
:10046A007A19006E800E005C02E1000E795D0BE2E3
:10047A00010E7F6F000E806F79510008816F7AC07C
:10048A0082F0000E825781C083F082C084F07BC064
:10049A0085F07CC086F0A3DE060E7D6F000E7E6FAF
:1004AA00000E006E7E51005C02E17D51000819E2E7
:1004BA007D517B25E16E7E517C21E26E010E7D5DD0
:1004CA00006E000E7E59016E00507B25E96E0150C8
:1004DA007C21EA6EEECFE6FF010E7D5F000E7E5BA9
:1004EA00DFD77BC0E1FF7CC0E2FF200EE66E7F51C2
:1004FA0080111AE07D6B7E6B7D517B25E96E7E5102
:10050A007C21EA6EEE50200A03E17D4B7E2BF4D764
:10051A00010E7D5F000E7E5B7D517B25E16E7E5173
:0A052A007C21E26E2D0EE66E120039
:1005340079C004F07AC005F004C002F005C003F0ED
:10054400044A052A7BC000F07CC001F000017B4B0B
:100554007C2B00C0E9FF01C0EAFF02C0E1FF03C039
:10056400E2FFEECFE6FF02C0E9FF03C0EAFFEE526E
:0E05740001E0E2D779C000F07AC001F0120079
:10058200BEEC03F0FF0E0001786F0F013A959484E0
:100592003A879486949C8B8C956A010E8C6E3D0EE4
:1005A200C26E210EC06ECD9ECD9CCD9ACD88CD82DD
:1005B200CD80BD96BD84BD92BD80499349913F0EC9
:1005C2003917C00E62129D849E949D809E90CF6AC0
:1005D200CE6AF286F2909E9C9D8CF28CC2DE010E57
:1005E20000018A6FC1DD0C0E8A6FBEDD010E796FCC
:1005F200010E7A6F3B0E7B6F000E7C6F73DE020E74
:10060200796F010E7A6F2B0E7B6F000E7C6F6ADEA4
:10061200F28EC2824B522BE0F29E670E796F000E71
:100622007A6F4C0E7B6F000E7C6F83DF5DC079F0BA
:100632005EC07AF05B50795F5C507A5B600E7B6FD4
:10064200000E7C6F09DF670E796F000E7A6F600E05
:100652007B6F000E7C6F16DE010E796F010E7A6FD2
:10066200670E7B6F000E7C6F3DDE4B6AF28E1C5074
:100672001A5C02E11B50195C35E21D5233E019503D
:100682001B5E1A501C5A29C000F02AC001F0050E48
:10069200046E000E056EB8DE00C079F001C07AF07B
:1006A200600E7B6F000E7C6FD7DE1D6A670E796F5E
:1006B200000E7A6F1E0E7B6F000E7C6F3ADF670EA4
:1006C200796F000E7A6F600E7B6F000E7C6FDADD41
:1006D200020E796F010E7A6F670E7B6F000E7C6FD0
:1006E20001DEC28258505A5C02E15750595C22E244
:1006F2005950575E5A50585A7851FF0A0CE18CCF24
:1007020000F00036009000C08CFF8C50800A02E19D
:10071200010E786F0ED07851010A0BE18CCF00F0F8
:100722000032009E00C08CFF8C50010A02E1FF0ED5
:08073200786FD8D76FD7FFD70D
:10077C0010EE19F0420E006E010E016E3A0EF66E7E
:0E078C00070EF76E000EF86EFDEC01F0120085
:02073A00640059
:02073C000000BB
:01073E0000BA
:0B073F004144435B6D6D5D203D2000D8
:02074A000000AD
:10074C0057616974696E6720414443202E2E2E0038
:10075C0057616974696E6720434350202E2E2E001A
:01076C00008C
:0B076D004343505B6D6D5D203D20009C
:0207780000007F
:02077A00F40188
:020000040030CA
:0D000100231F3CFFBF81FF0FC00FE00F4029
:00000001FF
