:040000007FEF02F09C
:1000080000C019F001C018F002C017F003C016F0C4
:1000180004C015F09EAC2AD09E9CC4CF8CFFC4CFE0
:1000280024F0000E256EC3CF36F0000E376E24C0C4
:1000380003F025C004F0033603900436033603901A
:100048000436060E026E36C000F037C001F00250CA
:1000580005E001320032019EFF0FFAD7005003106D
:10006800246E04500110256E010E486E19C000F070
:1000780018C001F017C002F016C003F015C004F054
:02008800110065
:0A008A00210E0D6E0D2EFED71200A0
:100094000F0E0C6E470E0D6E0D2EFED70C2EFCD7D8
:0600A40000000000120044
:0600AA000000000012003E
:1000B000086A096A100E0C6E0134083609360450BD
:1000C000085E0550D8A0053C095ED8B007D00450A2
:1000D00008260550D8B0053C0926D89000360136D0
:0600E0000C2EEAD712000D
:1000E600000183BF02D08A9601D08A8683BD02D0E2
:1000F6008A9401D08A8483BB02D08A9201D08A82F4
:1001060083B902D08A9001D08A8059B002D08A88F9
:1001160001D08A988A8AC6DF8A9A83B702D08A96DD
:1001260001D08A8683B502D08A9401D08A8483B3AB
:1001360002D08A9201D08A8283B102D08A9001D0FD
:100146008A8059B002D08A8801D08A988A8AAADF22
:0E0156008A9A59A002D09BDF01D094DF1200DC
:100164000001806B050E805D0AE280517E25E16E00
:10017400000E7F21E26E200EE66E802BF3D78051B5
:100184007E25E16E000E7F21E26EE66A80078051D3
:100194007E25816F000E7F21826F0A0E046E000E91
:1001A400056E7CC000F07DC001F080DF08C000F067
:1001B40009C001F0300E002681C0E1FF82C0E2FFD9
:1001C40000C0E6FF0A0E046E000E056E7CC000F04F
:1001D4007DC001F06BDF00C07CF001C07DF0000E3B
:1001E400011802E1000E001801E102D08007CFD708
:0201F4001200F7
:0C01F60059907CC083F074DF5980120027
:1002020072C004F073C005F004C002F005C003F030
:10021200044A052A74C000F075C001F00001744B55
:10022200752B00C0E9FF01C0EAFF02C0E1FF03C075
:10023200E2FFEECFE6FF02C0E9FF03C0EAFFEE52A3
:0E02420001E0E2D772C000F073C001F01200BC
:1002500010D0800E0001726F1AD0C00E726F17D0CE
:10026000940E726F14D0D40E726F11D0800E726F14
:100270000ED000017251010AECE07251020AEDE069
:100280007251030AEDE07251040AEDE0EFD77305F5
:10029000006E7251002600C072F000C083F023DFB0
:1002A0005990766B76517425E96E000E7521EA6ED1
:1002B000EE520BE076517425E96E000E7521EA6E60
:0E02C000EECF7CF098DF762BEDD75980120040
:1002CE00939A939893909392939493968A9A8A98EA
:1002DE008A968A948A928A90D6DED5DED4DE8A8277
:1002EE008A808A8ADBDE8A9ACEDE8A8AD7DE8A9A6C
:1002FE00CADE8A8AD3DE8A9AC6DE8A908A8ACEDEE1
:10030E008A9AC1DE8A8ACADE8A9A8A928A868A8AFC
:10031E00C5DE8A9AB8DE8A968A808A8ABFDE8A9A73
:10032E008A908A8ABBDE8A9AAEDE8A8AB7DE8A9A7B
:10033E008A808A8AB3DE8A9AA6DE8A908A8AAEDE9E
:10034E008A9A8A868A848A828A808A8AA7DE8A9A8A
:06035E009ADE5980120036
:100364000900F5CFE6FF0006FBE10106F9E1120002
:1003740072C004F073C005F004C0E9FF05C0EAFFD1
:10038400EE5203E0044A052AF7D704C002F005C080
:1003940003F0044A052A74C000F075C001F000019E
:1003A400744B752B00C0E9FF01C0EAFF02C0E1FFF6
:1003B40003C0E2FFEECFE6FF02C0E9FF03C0EAFF9D
:1003C400EE5201E0E2D772C000F073C001F01200F7
:1003D4000001786B796B72C07AF073C07BF0800E89
:1003E4007319006E800E005C02E1000E725D0BE278
:1003F400010E786F000E796F725100087A6F73C026
:100404007BF0000E7B577AC07CF07BC07DF074C01B
:100414007EF075C07FF0A4DE060E766F000E776F57
:10042400000E006E7751005C02E17651000819E27B
:1004340076517425E16E77517521E26E010E765D79
:10044400006E000E7759016E00507425E96E01505C
:100454007521EA6EEECFE6FF010E765F000E775B44
:10046400DFD774C0E1FF75C0E2FF200EE66E78515D
:1004740079111AE0766B776B76517425E96E7751B2
:100484007521EA6EEE50200A03E1764B772BF4D700
:10049400010E765F000E775B76517425E16E77511D
:0A04A4007521E26E2D0EE66E1200C7
:1004AE000B6A0A6A096A00500402F4CF09F0F3CF0E
:1004BE0008F001500502F4CF0BF0F3CF0AF0005014
:1004CE000502F3500926F4500A22E86A0B22015065
:1004DE000402F3500926F4500A22E86A0B2208C0DF
:1004EE0000F009C001F00AC002F00BC003F01200C8
:1004FE0007EC03F00F013A879486949C8B8C956AD7
:10050E008C6A3D0EC26E210EC06E9D8C9E9CF28C2E
:10051E00D7DE010E0001836FDFDD0C0E836FDCDD95
:10052E00010E726F010E736F380E746F000E756FC1
:10053E0088DE020E726F010E736F490E746F000E1D
:10054E00756F7FDEF28EC282485238E024C000F012
:10055E0025C001F0050E046E000E056EA1DF00C071
:10056E0072F001C073F05A0E746F000E756F2BDFB0
:10057E00486A610E726F000E736F1A0E746F000E62
:10058E00756F38DE610E726F000E736F5A0E746FD8
:10059E00000E756FE8DE010E726F010E736F260E80
:1005AE00746F000E756F4DDE020E726F010E736F5B
:1005BE00610E746F000E756F44DEC282C5D7FFD711
:10060E0010EE1AF03F0E006E010E016ECE0EF66E5B
:0E061E00050EF76E000EF86EB2EC01F0120041
:0A05CE004144435B6D6D5D203D006C
:0205D800000021
:1005DA0043435020697320776F726B696E672100FD
:0205EA0000000F
:1005EC0057616974696E6720434350202E2E2E008C
:0105FC0000FE
:1005FD0057616974696E6720414443202E2E2E0089
:020000040030CA
:0D000100231F3CFFBF81FF0FC00FE00F4029
:00000001FF
