:04000000D0EF00F04D
:1000080000C017F001C016F002C015F0F2A02ED003
:1000180081AE15D0640E1824016E000E1920026EF0
:1000280001C018F002C019F00250030802E10150A3
:10003800E80804E2E80E186E030E196E16D081ACBB
:1000480014D0640E185C016E000E1958026E01C0BF
:1000580018F002C019F0000E025C02E1640E015CA7
:1000680004E2640E186E000E196EF29017C000F0CC
:0A00780016C001F015C002F01100DF
:10008200220E0C6E086A096A0A6A0B6A0C06D8B458
:100092001FD0D8900B320A320932083203320232B0
:1000A20001320032D8A0F2D70C06D8B409D00450DD
:1000B20008260550092206500A2207500B22EAD7C9
:1000C200045008260550092206500A2207500B2226
:0200D20012001A
:1000D400D00E1D6E070E1E6E000E1F6E206ED00E0B
:1000E400006E070E016E000E026E000E036E1BC042
:1000F40004F01CC005F0000E066E076EC0DF00C0E1
:100104001DF001C01EF002C01FF003C020F0000E5D
:10011400035C08E1000E025C05E1020E015C02E1F1
:10012400940E005C01E231D0940E1D5E020E1E5A44
:10013400000E1F5A205A050E006E005007E02032B0
:100144001F321E321D32209EFF0FF8D71DC000F053
:100154001EC001F01FC002F020C003F0010E1D5E9E
:10016400000E1E5A1F5A205A00500110021003108C
:100174000CE000000000000000000000000000008F
:0C0184000000000000000000E1D71200A5
:100190000900F5CFE6FF0006FBE10106F9E11200D8
:1001A000FA0E186E196A010E1A6E946A010E8B6EA1
:1001B000010E8B6E010E8B6E010E8B6E010E8B6E1F
:1001C0003F0E0F01396FC00E936EC00E626EF28645
:1001D000F290F28E1A50010A07E18BCF00F0003640
:1001E000009000C08BFF06D08BCF00F00032009E45
:1001F00000C08BFF8B50010A03E1010E1A6E05D07F
:100200008B50800A02E1FF0E1A6E18C01BF019C055
:080210001CF060DFDFD7FFD70F
:020000040030CA
:0D000100231F3CFFBF81FF0FC00FE00F4029
:00000001FF
