:100000005CEF00F00000000000EF00F000000000D6
:0A0010000000000000000000F3D71C
:10001C001B50000A11E119C0E9FF1AC0EAFFEECF2C
:10002C0002F002C000F00036009019C0E1FF1AC0C7
:10003C00E2FF00C0E6FF10D019C0E9FF1AC0EAFFCA
:10004C00EECF02F002C000F00032009E19C0E1FFBA
:10005C001AC0E2FF00C0E6FF19C0E9FF1AC0EAFFB0
:10006C00EECF01F00150800A03E1010E1B6E0AD0A5
:10007C0019C0E9FF1AC0EAFFEECF01F00150010AE6
:0A008C00D8B41B6A1BC000F012007C
:10009600926A936A946A956A010E896E010E8A6E57
:1000A600010E8B6E010E8C6E186A176A156A166A37
:0200B600120036
:1000B800EEDF030E0B6E8A0E0C6E550E0D6E0D2EB6
:1000C800FED70C2EFCD70B2EFAD700000000890EA5
:1000D800196E0F0E1A6E18C01BF09CDF00C018F0C6
:1000E8008A0E196E0F0E1A6E17C01BF093DF00C030
:1000F80017F08B0E196E0F0E1A6E15C01BF08ADFE3
:1001080000C015F08C0E196E0F0E1A6E16C01BF07B
:0A01180081DF00C016F0CDD7FFD73D
:020000040030CA
:0D000100231F3CFFBF81FF0FC00FE00F4029
:00000001FF
