:0400000067EF02F0B4
:100008009EAC0FD0010E186E9E9CC2B404D0156A27
:100018003C0EC21206D0C2A404D0010E156EC30E47
:04002800C2161100EB
:0A002C00210E0D6E0D2EFED71200FE
:100036000F0E0C6E470E0D6E0D2EFED70C2EFCD736
:06004600000000001200A2
:06004C000000000012009C
:1000520000016FBF02D08A9601D08A866FBD02D09E
:100062008A9401D08A846FBB02D08A9201D08A829C
:100072006FB902D08A9001D08A8042B002D08A88B9
:1000820001D08A988A8AE1DF8A9A6FB702D08A966B
:1000920001D08A866FB502D08A9401D08A846FB368
:1000A20002D08A9201D08A826FB102D08A9001D0A6
:1000B2008A8042B002D08A8801D08A988A8AC5DFB3
:0E00C2008A9A42A002D0B6DF01D0AFDF120052
:1000D000086A096A100E0C6E01340836093604509D
:1000E000085E0550D8A0053C095ED8B007D0045082
:1000F00008260550D8B0053C0926D89000360136B0
:060100000C2EEAD71200EC
:0C010600429060C06FF0A2DF4280120047
:100112000001606B050E605D0AE260516B25E16EC5
:10012200000E6C21E26E200EE66E602BF3D760515A
:100132006B25E16E000E6C21E26EE66A600760518B
:100142006B256D6F000E6C216E6F0A0E046E000E31
:10015200056E69C000F06AC001F0B9DF08C000F0A6
:1001620009C001F0300E00266DC0E1FF6EC0E2FF53
:1001720000C0E6FF0A0E046E000E056E69C000F0B4
:100182006AC001F0A4DF00C069F001C06AF0000E8D
:10019200011802E1000E001801E102D06007CFD77A
:0201A200120049
:1001A400050E016E5EC000F0015004E00032009EB6
:1001B400FF0FFBD7002A00C001F0010E006E0150B2
:0E01C40004E000360090FF0FFBD7000612008B
:1001D2000900F5CFE6FF0006FBE10106F9E1120096
:1001E20061C004F062C005F004C002F005C003F073
:1001F200044A052A63C000F064C001F00001634BA9
:10020200642B00C0E9FF01C0EAFF02C0E1FF03C0A6
:10021200E2FFEECFE6FF02C0E9FF03C0EAFFEE52C3
:0E02220001E0E2D761C000F062C001F01200FE
:1002300010D0800E0001616F1AD0C00E616F17D010
:10024000940E616F14D0D40E616F11D0800E616F67
:100250000ED000016151010AECE06151020AEDE0AB
:100260006151030AEDE06151040AEDE0EFD7620548
:10027000006E6151002600C061F000C06FF0E9DE41
:1002800042905E6A5E506325E96E000E6421EA6E5C
:10029000EE520BE05E506325E96E000E6421EA6EBB
:0E02A000EECF60F030DF5E2AEDD74280120014
:1002AE00939A939893909392939493968A9A8A980A
:1002BE008A968A948A928A90B7DEB6DEB5DE8A82F4
:1002CE008A808A8ABCDE8A9AAFDE8A8AB8DE8A9AE9
:1002DE00ABDE8A8AB4DE8A9AA7DE8A908A8AAFDE7D
:1002EE008A9AA2DE8A8AABDE8A9A8A928A868A8A5B
:1002FE00A6DE8A9A99DE8A968A808A8AA0DE8A9AF1
:10030E008A908A8A9CDE8A9A8FDE8A8A98DE8A9AF8
:10031E008A808A8A94DE8A9A87DE8A908A8A8FDE1B
:10032E008A9A8A868A848A828A808A8A88DE8A9AC9
:06033E007BDE428012008C
:100344000001656B666B61C067F062C068F0800E87
:100354006219006E800E005C02E1000E615D0BE22A
:10036400010E656F000E666F61510008676F62C011
:1003740068F0000E685767C069F068C06AF063C02F
:100384006BF064C06CF0C3DE060E5E6E000E5F6E32
:10039400000E006E5F50005C02E15E50000819E23E
:1003A4005E506325E16E5F506421E26E010E5E5C77
:1003B400006E000E5F58016E00506325E96E015017
:1003C4006421EA6EEECFE6FF010E5E5E000E5F5A18
:1003D400DFD763C0E1FF64C0E2FF200EE66E655123
:1003E40066111AE05E6A5F6A5E506325E96E5F50CB
:1003F4006421EA6EEE50200A03E15E4A5F2AF4D7D4
:10040400010E5E5E000E5F5A5E506325E16E5F5022
:0A0414006421E26E2D0EE66E120068
:10041E0061C004F062C005F004C0E9FF05C0EAFF48
:10042E00EE5203E0044A052AF7D704C002F005C0D5
:10043E0003F0044A052A63C000F064C001F0000115
:10044E00634B642B00C0E9FF01C0EAFF02C0E1FF6D
:10045E0003C0E2FFEECFE6FF02C0E9FF03C0EAFFF2
:10046E00EE5201E0E2D761C000F062C001F012006E
:10047E000B6A0A6A096A00500402F4CF09F0F3CF3E
:10048E0008F001500502F4CF0BF0F3CF0AF0005044
:10049E000502F3500926F4500A22E86A0B22015095
:1004AE000402F3500926F4500A22E86A0B2208C00F
:1004BE0000F009C001F00AC002F00BC003F01200F8
:1004CE006FEC03F05B6A5C6A5D6A620ED36E0F01BD
:1004DE00389738953893956A8C6A010E946EE0DEE3
:1004EE00010E00016F6FAEDD0C0E6F6FABDD010EF6
:1004FE00616F010E626F2F0E636F000E646F91DEDF
:10050E00020E616F010E626F200E636F000E646F3C
:10051E0088DE010EC26E150EC06E9D8C9E9CF28CF6
:10052E007E0E0F014A6F9684080E486FFF0E4B6FBA
:10053E000C0E546F556B9694949C8B8C94863A87C4
:10054E00F28EC2825C1C006E00508014016E01A2FD
:10055E0008D05B500008D8A05B065C82010E5D6E71
:10056E001AD05C1C006E00508014016E01A405D0E0
:10057E005B6A5C84010E5D6E0ED05C1C006E0050DA
:10058E008014016E01A607D0FF0E5B5CD8A05B2A1B
:10059E005C86010E5D6E80505C165D522BE05BC07A
:1005AE005EF0F9DD00C08CFF430E0001616F000E9E
:1005BE00626F190E636F000E646F0CDE5BC061F02C
:1005CE00000E626F540E636F000E646FB4DE430E46
:1005DE00616F000E626F540E636F000E646F18DF52
:1005EE00010E616F010E626F430E636F000E646F3A
:1005FE0018DE5D6A18524BE01550000A48E1C4CF70
:10060E0016F0000E176E1636169017361636169012
:10061E001736060E016EC3CF00F0015004E0003213
:10062E00009EFF0FFBD7000100501612000E17128E
:10063E00430E616F000E626F380E636F000E646FB3
:10064E00C9DD16C000F017C001F0050E046E000ED5
:10065E00056E0EDF00C061F001C062F0540E636FD4
:10066E00000E646F68DE430E616F000E626F540EF3
:10067E00636F000E646FCCDE020E616F010E626F4F
:10068E00430E636F000E646FCCDD186AC28218527F
:10069E0006E0155204E0C4CF55FFC282186A52D745
:0206AE00FFD774
:1006DE0010EE15F02D0E006E010E016EB00EF66EC0
:0E06EE00060EF76E000EF86EE9EC00F012003A
:0106B0000049
:0206B100000047
:0106B3000046
:0706B400436F6E74203D004E
:0F06BB0057616974696E67204144432E2E2E00EB
:0906CA00436F6E74203D203000E6
:0A06D3004144435B6D565D203D007D
:020000040030CA
:0D000100231F3CFFBF81FF0FC00FE00F4029
:00000001FF
