:0400000010EF02F00B
:10000800F2A40BD0F294210E1926000E1A221D52CA
:0C00180004E0210E1526000E1622110037
:0A002400210E0D6E0D2EFED7120006
:10002E000F0E0C6E470E0D6E0D2EFED70C2EFCD73E
:06003E00000000001200AA
:06004400000000001200A4
:10004A00086A096A100E0C6E013408360936045023
:10005A00085E0550D8A0053C095ED8B007D0045008
:10006A0008260550D8B0053C0926D8900036013636
:06007A000C2EEAD7120073
:100080004FBE02D08A9601D08A864FBC02D08A9495
:1000900001D08A844FBA02D08A9201D08A824FB8A6
:1000A00002D08A9001D08A801EB002D08A8801D006
:1000B0008A988A8AC7DF8A9A4FB602D08A9601D078
:1000C0008A864FB402D08A9401D08A844FB202D07B
:1000D0008A9201D08A824FB002D08A9001D08A8061
:1000E0001EB002D08A8801D08A988A8AABDF8A9AA9
:0C00F0001EA002D09CDF01D095DF1200A2
:0C00FC001E9048C04FF0BEDF1E801200B6
:100108004C6A050E4C5C0AE24C504A24E16E000E23
:100118004B20E26E200EE66E4C2AF3D74C504A2450
:10012800E16E000E4B20E26EE66A4C064C504A2403
:100138004D6E000E4B204E6E0A0E046E000E056EBC
:1001480048C000F049C001F07CDF08C000F009C0D9
:1001580001F0300E00264DC0E1FF4EC0E2FF00C0A6
:10016800E6FF0A0E046E000E056E48C000F049C096
:1001780001F067DF00C048F001C049F0000E011827
:1001880002E1000E001801E102D04C06CFD71200A0
:10019800086A080E0C6E003408360450085ED8B0A1
:0E01A80002D00826D89000360C2EF5D7120093
:1001B600939A939893909392939493968A9A8A9803
:1001C6008A968A948A928A902FDF2EDF2DDF8A8282
:1001D6008A808A8A34DF8A9A27DF8A8A30DF8A9A77
:1001E60023DF8A8A2CDF8A9A1FDF8A908A8A27DF92
:1001F6008A9A1ADF8A8A23DF8A9A8A928A868A8A62
:100206001EDF8A9A11DF8A968A808A8A18DF8A9A7E
:100216008A908A8A14DF8A9A07DF8A8A10DF8A9A86
:100226008A808A8A0CDF8A9AFFDE8A908A8A07DFAA
:100236008A9A8A868A848A828A808A8A00DF8A9A49
:06024600F3DE1E80120031
:10024C000900F5CFE6FF0006FBE10106F9E112001B
:10025C000FD0800E3E6E19D0C00E3E6E16D0940E8E
:10026C003E6E13D0D40E3E6E10D0800E3E6E0DD06E
:10027C003E50010AEEE03E50020AEEE03E50030A08
:10028C00EEE03E50040AEEE0F0D73F04006E3E5024
:10029C00002600C03EF000C04FF0ECDE1E90426A1B
:1002AC0042504024E96E000E4120EA6EEE520BE003
:1002BC0042504024E96E000E4120EA6EEECF48F029
:0A02CC0017DF422AEDD71E80120052
:1002D600416A030E415C0AE241503F24E16E000E82
:1002E6004020E26E200EE66E412AF3D741503F24AD
:1002F600E16E000E4020E26EE66A410641503F2460
:10030600426E000E4020436E0A0E046E3EC000F0A0
:1003160040DF08C000F0300E002642C0E1FF43C0B7
:10032600E2FF00C0E6FF0A0E046E3EC000F031DFB9
:1003360000C03EF00050000A01E102D04106DED7BF
:020346001200A3
:10034800446A456A3EC046F03FC047F0800E3F18F9
:10035800006E800E005C02E1000E3E5C0BE2010EB6
:10036800446E000E456E3E500008466E3FC047F092
:10037800000E475646C048F047C049F040C04AF012
:1003880041C04BF0BDDE060E426E000E436E000EFD
:10039800006E4350005C02E14250000819E24250EE
:1003A8004024E16E43504120E26E010E425C006E33
:1003B800000E4358016E00504024E96E0150412060
:1003C800EA6EEECFE6FF010E425E000E435ADFD71B
:1003D80040C0E1FF41C0E2FF200EE66E44504510E8
:1003E8001AE0426A436A42504024E96E4350412071
:1003F800EA6EEE50200A03E1424A432AF4D7010E7E
:10040800425E000E435A42504024E16E4350412060
:08041800E26E2D0EE66E1200EB
:100420003CEC03F04E0EF66E060EF76E000EF86E04
:100430001F0EE16E000EE26E180E006E010E016ED0
:1004400005DF946A956A8C6A8B6A0F01386BFF0E20
:10045000926EC70ED56EA00EF26EADDE010E4F6E1F
:100460000FDE0C0E4F6E0CDE010E3E6E010E3F6E67
:10047000290E406E000E416EF1DE1C501A5C02E146
:100480001B50195C20E31B50195E1C501A5A1F2A7E
:10049000800E1F18006E800E080A005C02E3080E32
:1004A0001F5E6F0E1F24F66E060EF76E000E1FBE47
:1004B000FF0EF722000EF86E000E1FBEFF0EF82290
:1004C0000900F5CF8CFF1850165C02E11750155C3F
:1004D000D8A075D01750155E1850165A252A25C079
:1004E0003EF0370E3F6E000E406EF5DE010E3E6EA2
:1004F000090E3F6E370E406E000E416EAFDE010EEC
:100500003E6E090E3F6E350E406E000E416EA6DE49
:100510002550640A1BE1256A262A26C03EF0370EC4
:100520003F6E000E406ED7DE010E3E6E060E3F6E31
:10053000370E406E000E416E91DE010E3E6E060ECD
:100540003F6E350E406E000E416E88DE26503C0A2E
:100550001BE1266A272A27C03EF0370E3F6E000EA9
:10056000406EB9DE010E3E6E030E3F6E370E406EDA
:10057000000E416E73DE010E3E6E030E3F6E350EB1
:10058000406E000E416E6ADE27503C0A14E1276A75
:10059000282A28C03EF0000E3F6E370E406E000E37
:1005A000416ED2DE010E3E6E010E3F6E370E406E82
:1005B000000E416E53DE2850180AD8B4286A80A66F
:1005C0000AD02350000A07E1010E236E640E1B2699
:1005D000000E1C2205D080B603D02352D8A4236A73
:1005E00080A80AD02450000A07E1010E246E640E90
:1005F0001B5E000E1C5A05D080B803D02452D8A42C
:10060000246A80A00DD02050000A0AE1010E206E5D
:10061000010E1D6E216A226A010E4F6E31DD15D06A
:1006200080A208D02150000A05E1010E216E1D6A4A
:10063000206A0BD080A409D02250000A06E1010EE6
:0E064000226E256A156A166A206A17D7FFD740
:1006780010EE15F0090E006E010E016E660EF66E94
:0E068800060EF76E000EF86E26EC01F0120062
:01064E0000AB
:01064F0000AA
:0106500000A9
:0106510000A8
:0106520000A7
:0106530000A6
:0106540000A5
:0106550000A4
:0106560000A3
:0106570000A2
:0C06580068683A6D6D3A73733A63730082
:020664003A005A
:02066600000092
:020668000A0086
:02066A0000008E
:02066C00F40197
:01066E00008B
:08066F000081C3E7FFE7C3812E
:020000040030CA
:0D000100231F3CFFBF81FF0FC00FE00F4029
:00000001FF
