:0400000050EF02F0CB
:100008009EAC0FD0010E186E9E9CC2B404D0156A27
:100018003C0EC21206D0C2A404D0010E156EC30E47
:04002800C2161100EB
:0A002C00210E0D6E0D2EFED71200FE
:100036000F0E0C6E470E0D6E0D2EFED70C2EFCD736
:06004600000000001200A2
:06004C000000000012009C
:10005200086A096A100E0C6E01340836093604501B
:10006200085E0550D8A0053C095ED8B007D0045000
:1000720008260550D8B0053C0926D890003601362E
:060082000C2EEAD712006B
:10008800000177BF02D08A9601D08A8677BD02D058
:100098008A9401D08A8477BB02D08A9201D08A825E
:1000A80077B902D08A9001D08A804AB002D08A8873
:1000B80001D08A988A8AC6DF8A9A77B702D08A9648
:1000C80001D08A8677B502D08A9401D08A8477B322
:1000D80002D08A9201D08A8277B102D08A9001D068
:1000E8008A804AB002D08A8801D08A988A8AAADF90
:0E00F8008A9A4AA002D09BDF01D094DF12004A
:100106000001746B050E745D0AE274517225E16E8E
:10011600000E7321E26E200EE66E742BF3D7745137
:100126007225E16E000E7321E26EE66A7407745161
:100136007225756F000E7321766F0A0E046E000E1F
:10014600056E70C000F071C001F080DF08C000F0DD
:1001560009C001F0300E002675C0E1FF76C0E2FF4F
:1001660000C0E6FF0A0E046E000E056E70C000F0B9
:1001760071C001F06BDF00C070F001C071F0000EBD
:10018600011802E1000E001801E102D07407CFD772
:02019600120055
:0C0198004A9070C077F074DF4A801200BB
:1001A40066C004F067C005F004C0E9FF05C0EAFFBB
:1001B400EE5203E0044A052AF7D704C002F005C052
:1001C40003F0044A052A68C000F069C001F0000188
:1001D400684B692B00C0E9FF01C0EAFF02C0E1FFE0
:1001E40003C0E2FFEECFE6FF02C0E9FF03C0EAFF6F
:1001F400EE5201E0E2D766C000F067C001F01200E1
:1002040010D0800E0001666F1AD0C00E666F17D032
:10021400940E666F14D0D40E666F11D0800E666F84
:100224000ED000016651010AECE06651020AEDE0CD
:100234006651030AEDE06651040AEDE0EFD7670565
:10024400006E6651002600C066F000C077F01ADF29
:100254004A906A6B6A516825E96E000E6921EA6E5C
:10026400EE520BE06A516825E96E000E6921EA6ED0
:0E027400EECF70F08FDF6A2BEDD74A801200BC
:10028200939A939893909392939493968A9A8A9836
:100292008A968A948A928A90CDDECCDECBDE8A82DE
:1002A2008A808A8AD2DE8A9AC5DE8A8ACEDE8A9AD3
:1002B200C1DE8A8ACADE8A9ABDDE8A908A8AC5DE51
:1002C2008A9AB8DE8A8AC1DE8A9A8A928A868A8A5B
:1002D200BCDE8A9AAFDE8A968A808A8AB6DE8A9ADB
:1002E2008A908A8AB2DE8A9AA5DE8A8AAEDE8A9AE3
:1002F2008A808A8AAADE8A9A9DDE8A908A8AA5DE06
:100302008A9A8A868A848A828A808A8A9EDE8A9ADF
:0603120091DE4A8012009A
:100318000900F5CFE6FF0006FBE10106F9E112004E
:100328000B6A0A6A096A00500402F4CF09F0F3CF95
:1003380008F001500502F4CF0BF0F3CF0AF000509B
:100348000502F3500926F4500A22E86A0B220150EC
:100358000402F3500926F4500A22E86A0B2208C066
:1003680000F009C001F00AC002F00BC003F012004F
:1003780000016C6B6D6B66C06EF067C06FF0800E2D
:100388006719006E800E005C02E1000E665D0BE2EC
:10039800010E6C6F000E6D6F665100086E6F67C0BE
:1003A8006FF0000E6F576EC070F06FC071F068C0CC
:1003B80072F069C073F0A3DE060E6A6F000E6B6FF1
:1003C800000E006E6B51005C02E16A51000819E2F0
:1003D8006A516825E16E6B516921E26E010E6A5D12
:1003E800006E000E6B59016E00506825E96E0150D1
:1003F8006921EA6EEECFE6FF010E6A5F000E6B5BC5
:10040800DFD768C0E1FF69C0E2FF200EE66E6C51DD
:100418006D111AE06A6B6B6B6A516825E96E6B5156
:100428006921EA6EEE50200A03E16A4B6B2BF4D780
:10043800010E6A5F000E6B5B6A516825E16E6B51B5
:0A0448006921E26E2D0EE66E12002F
:1004520066C004F067C005F004C002F005C003F0F6
:10046200044A052A68C000F069C001F00001684B27
:10047200692B00C0E9FF01C0EAFF02C0E1FF03C02F
:10048200E2FFEECFE6FF02C0E9FF03C0EAFFEE5251
:0E04920001E0E2D766C000F067C001F0120082
:1004A0009CEC03F00001636B646B656B620ED36EB2
:1004B0000F01389738953893956A8C6AE2DE010E01
:1004C0000001776FE1DD0C0E776FDEDD010E666FE8
:1004D000010E676F370E686F000E696F93DE020EB4
:1004E000666F010E676F200E686F000E696F8ADEFF
:1004F000010EC26E150EC06E9D8C9E9CF28C7E0EFF
:100500000F014A6F9684080E486FFF0E4B6F0C0E5A
:10051000546F556B9694949C8B8C94863A87F28E8C
:10052000C2820001641D006E00508014016E01A2A1
:1005300008D063510008D8A063076483010E656F7B
:100540001AD0641D006E00508014016E01A405D005
:10055000636B6485010E656F0ED0641D006E0050E4
:100560008014016E01A607D0FF0E635DD8A0632B37
:100570006487010E656F80506417655325E04B0E4C
:10058000666F000E676F190E686F000E696F61DF8E
:1005900063C066F0000E676F5C0E686F000E696FD7
:1005A000EBDE4B0E666F000E676F5C0E686F000E21
:1005B000696FF8DD010E666F010E676F4B0E686F95
:1005C000000E696F1FDE656B18524AE01550000A75
:1005D00047E1C4CF16F0000E176E16361690173688
:1005E000163616901736060E016EC3CF00F0015076
:1005F00004E00032009EFF0FFBD700501612000EE1
:1006000017124B0E666F000E676F400E686F000E7C
:10061000696F1FDF16C000F017C001F0050E046EF1
:10062000000E056E81DE00C066F001C067F05C0E52
:10063000686F000E696FA0DE4B0E666F000E676F6D
:100640005C0E686F000E696FADDD020E666F010E05
:10065000676F4B0E686F000E696FD4DD186AC28237
:1006600018524DE015524BE0C4CF55FFC4CF8CFF5C
:10067000C4CF16F0000E176E1636169017361636C3
:1006800016901736060E016EC3CF00F0015004E03D
:100690000032009EFF0FFBD700501612000E1712FB
:1006A0004B0E666F000E676F2F0E686F000E696F3E
:1006B000D0DE16C000F017C001F0050E046E000E6B
:1006C000056E32DE00C066F001C067F05C0E686F38
:1006D000000E696F51DE4B0E666F000E676F5C0E89
:1006E000686F000E696F5EDD010E666F010E676F49
:1006F0004B0E686F000E696F85DDC282186A11D7D4
:02070000FFD721
:1007380010EE15F0350E006E010E016E020EF66E0B
:0E074800070EF76E000EF86E8CEC01F012003A
:0107020000F6
:020703000000F4
:0107050000F3
:07070600436F6E74203D00FB
:0F070D0057616974696E67204144432E2E2E0098
:08071C00536F6E6172203D0075
:09072400436F6E74203D2030008B
:0A072D004144435B6D565D203D0022
:020000040030CA
:0D000100231F3CFFBF81FF0FC00FE00F4029
:00000001FF
