:04000000D9EF02F042
:100008009EA206D09E92000E3426020E352202D001
:060018009EBC9E9C11003D
:0A001E00850E0D6E0D2EFED71200A8
:100028003A0E0C6E230E0D6E0D2EFED70C2EFCD73D
:020038001200B4
:0C003A00020E0D6E0D2EFED7000012000D
:10004600000172BF02D08A9601D08A8672BD02D0A4
:100056008A9401D08A8472BB02D08A9201D08A82A5
:1000660072B902D08A9001D08A8043B002D08A88C1
:1000760001D08A988A8ADEDF8A9A72B702D08A9677
:1000860001D08A8672B502D08A9401D08A8472B36E
:1000960002D08A9201D08A8272B102D08A9001D0AF
:1000A6008A8043B002D08A8801D08A988A8AC2DFC1
:0E00B6008A9A43A002D0B5DF01D0AEDF12005F
:1000C400086A096A100E0C6E0134083609360450A9
:1000D400085E0550D8A0053C095ED8B007D004508E
:1000E40008260550D8B0053C0926D89000360136BC
:0600F4000C2EEAD71200F9
:1000FA000134083609360450085E0550D8A0053C7C
:10010A00095E003601360F0E0C6E013408360936C8
:10011A00045000A006D0085E0550D8A0053C095E30
:10012A0005D008260550D8B0053C09260036013608
:10013A000C2EEBD700B006D0045008260550D8B0D4
:08014A00053C0926000012002B
:1001520000016F6B050E6F5D0AE26F516D25E16E56
:10016200000E6E21E26E200EE66E6F2BF3D76F51FA
:100172006D25E16E000E6E21E26EE66A6F076F5129
:100182006D25706F000E6E21716F0A0E046E000EE7
:10019200056E6BC000F06CC001F093DF08C000F088
:1001A20009C001F0300E002670C0E1FF71C0E2FF0D
:1001B20000C0E6FF0A0E046E000E056E6BC000F072
:1001C2006CC001F07EDF00C06BF001C06CF0000E6D
:1001D200011802E1000E001801E102D06F07CFD72B
:0201E200120009
:0C01E40043906BC072F02DDF43801200CE
:1001F0000450000A08E10550000A05E1FF0E006EF8
:100200007F0E016E57D00D6A096A086A015000100E
:10021000D8B4000C015005180A6E0ABE0D1E0B6AF8
:1002200005AE05D0041E051E042AD8B4052A01AE69
:1002300005D0001E011E002AD8B4012A0150051065
:100240000A6E0ABE10D059DF0BB020D00DAE000CE4
:10025000001E011E002AD8B4012A081E091E082A01
:10026000D8B4092A000C05AE0DD001BE07D001504C
:10027000096E0050086E016A006AE8D7016A006AD8
:10028000002A000C011E001E0B2ADDD7082AD8B454
:10029000092A0450085CD8A4D9D70550095CD8A411
:1002A000D5D7096A086A002AD8B4012A01AECED788
:0602B0000000FF0C12002B
:1002B6000900F5CFE6FF0006FBE10106F9E11200B1
:1002C6000B6A0A6A096A00500402F4CF09F0F3CFF8
:1002D60008F001500502F4CF0BF0F3CF0AF00050FE
:1002E6000502F3500926F4500A22E86A0B2201504F
:1002F6000402F3500926F4500A22E86A0B2208C0C9
:1003060000F009C001F00AC002F00BC003F01200B1
:1003160010D0800E0001616F1AD0C00E616F17D029
:10032600940E616F14D0D40E616F11D0800E616F80
:100336000ED000016151010AECE06151020AEDE0C4
:100346006151030AEDE06151040AEDE0EFD7620561
:10035600006E6151002600C061F000C072F070DED0
:100366004390606B60516325E96E000E6421EA6E6E
:10037600EE520BE060516325E96E000E6421EA6ED1
:0E038600EECF6BF02CDF602BEDD74380120022
:10039400939A939893909392939493968A9A8A9823
:1003A4008A968A948A928A903DDE3CDE3BDE8A827B
:1003B4008A808A8A40DE8A9A35DE8A8A3CDE8A9A74
:1003C40031DE8A8A38DE8A9A2DDE8A908A8A33DE82
:1003D4008A9A28DE8A8A2FDE8A9A8A928A868A8A6A
:1003E4002ADE8A9A1FDE8A968A808A8A24DE8A9A7C
:1003F4008A908A8A20DE8A9A15DE8A8A1CDE8A9A84
:100404008A808A8A18DE8A9A0DDE8A908A8A13DEA6
:100414008A9A8A868A848A828A808A8A0CDE8A9A5E
:0604240001DE438012001E
:10042A000001676B686B61C069F062C06AF0800E98
:10043A006219006E800E005C02E1000E615D0BE243
:10044A00010E676F000E686F61510008696F62C024
:10045A006AF0000E6A5769C06BF06AC06CF063C03C
:10046A006DF064C06EF070DE060E656F000E666F8A
:10047A00000E006E6651005C02E16551000819E247
:10048A0065516325E16E66516421E26E010E655D78
:10049A00006E000E6659016E00506325E96E015028
:1004AA006421EA6EEECFE6FF010E655F000E665B21
:1004BA00DFD763C0E1FF64C0E2FF200EE66E67513A
:1004CA0068111AE0656B666B65516325E96E6651C2
:1004DA006421EA6EEE50200A03E1654B662BF4D7DD
:1004EA00010E655F000E665B65516325E16E66511C
:0A04FA006421E26E2D0EE66E120082
:1005040061C004F062C005F004C002F005C003F04D
:10051400044A052A63C000F064C001F00001634B83
:10052400642B00C0E9FF01C0EAFF02C0E1FF03C081
:10053400E2FFEECFE6FF02C0E9FF03C0EAFFEE529E
:0E05440001E0E2D761C000F062C001F01200D9
:1005520061C004F062C005F004C0E9FF05C0EAFF13
:10056200EE5203E0044A052AF7D704C002F005C0A0
:1005720003F0044A052A63C000F064C001F00001E0
:10058200634B642B00C0E9FF01C0EAFF02C0E1FF38
:1005920003C0E2FFEECFE6FF02C0E9FF03C0EAFFBD
:1005A200EE5201E0E2D761C000F062C001F0120039
:1005B200DCEC03F0C80E5C6E0A0E5D6E5E6A5F6A6A
:1005C20096840F0148974895FF0EBB6E0C0E546F30
:1005D200556B220EC06E010EC26E9D8C9E9CF28CDB
:1005E200070EBA6ED6DE010E0001726F2BDD0C0E05
:1005F200726F28DD010E616F010E626F2F0E636F45
:10060200000E646F87DE9D829E92C282F28E969465
:100612007F0E0F013A17948E3550270802E13450AD
:1006220010084FE20F01100E345E270E355A5D504E
:10063200C45C556F010E0001616F010E626F360ED0
:10064200636F000E646F66DE5D500F01555D006ED4
:10065200016A000E015AFF0E046E000E056EC7DD20
:10066200BBCF04F0000E056E2DDE140E046E000EDC
:10067200056E28DE00C061F001C062F0440E000188
:10068200636F000E646FD0DE4B0E616F000E626FFF
:10069200260E636F000E646F34DF4B0E616F000E27
:1006A200626F440E636F000E646F52DF020E616F61
:1006B200010E626F4B0E636F000E646F2BDEC282FF
:1006C200ABD75E1C006E00508214016E01AE06D0E4
:1006D20000015F1E5E8E010E726FB4DC82505E16E8
:1006E2005F5250E00001010E616F010E626F150E44
:1006F200636F000E646F0EDEC282C2A201D0FDD70C
:10070200C4505C5C03E2C4CF5CF005D05D50C45CB5
:1007120002E2C4CF5DF000015D505C5CBB6EBBCFFA
:1007220061F0000E626F440E636F000E646F7CDE38
:100732004B0E616F000E626F210E636F000E646FCD
:10074200E0DE4B0E616F000E626F440E636F000EAF
:10075200646FFEDE020E616F010E626F4B0E636FFD
:10076200000E646FD7DD5E1C006E00508214016EB5
:1007720001AE05D05F1E5E8E010E726F63DC825089
:080782005E16AED749D7FFD780
:1007B80010EE15F02E0E006E010E016E8A0EF66E0A
:0E07C800070EF76E000EF86E5BEC01F01200EB
:0C078A0043616C6962726174696E670003
:050796005052323D004D
:09079B004144435B6D565D3D00D5
:0507A4004369616F00D4
:0207A90000004E
:0D07AB0041444320666F722050574D3A00C4
:020000040030CA
:0D000100331F3CFFBF81FF0FC00FE00F4019
:00000001FF
