:040000004DEF02F0CE
:10000800F2A40BD0210E2A26000E2B22275204E040
:0C001800210E2826000E2922F29411006F
:06002400000000001200C4
:10002A00086A096A100E0C6E013408360936045043
:10003A00085E0550D8A0053C095ED8B007D0045028
:10004A0008260550D8B0053C0926D8900036013656
:06005A000C2EEAD7120093
:0A006000210E0D6E0D2EFED71200CA
:10006A000F0E0C6E470E0D6E0D2EFED70C2EFCD702
:06007A000000000012006E
:100080005C6A050E5C5C0AE25C505A24E16E000E6C
:100090005B20E26E200EE66E5C2AF3D75C505A2499
:1000A000E16E000E5B20E26EE66A5C065C505A244C
:1000B0005D6E000E5B205E6E0A0E046E000E056E15
:1000C00058C000F059C001F0B0DF08C000F009C00E
:1000D00001F0300E00265DC0E1FF5EC0E2FF00C00F
:1000E000E6FF0A0E046E000E056E58C000F059C0FF
:1000F00001F09BDF00C058F001C059F0000E01185C
:1001000002E1000E001801E102D05C06CFD7120018
:1001100058BE02D08A9601D08A8658BC02D08A94F2
:1001200001D08A8458BA02D08A9201D08A8258B803
:1001300002D08A9001D08A802CB002D08A8801D067
:100140008A988A8A6FDF8A9A58B602D08A9601D036
:100150008A8658B402D08A9401D08A8458B202D0D8
:100160008A9201D08A8258B002D08A9001D08A80C7
:100170002CB002D08A8801D08A988A8A53DF8A9A62
:0C0180002CA002D072DF01D06BDF120057
:0C018C002C904EC058F0BEDF2C801200FA
:10019800546A556A4EC056F04FC057F0800E4F183B
:1001A800006E800E005C02E1000E4E5C0BE2010E58
:1001B800546E000E556E4E500008566E4FC057F0E4
:1001C800000E575656C058F057C059F050C05AF054
:1001D80051C05BF051DF060E526E000E536E000EDA
:1001E800006E5350005C02E15250000819E2525070
:1001F8005024E16E53505120E26E010E525C006EA5
:10020800000E5358016E00505024E96E01505120E1
:10021800EA6EEECFE6FF010E525E000E535ADFD7AC
:1002280050C0E1FF51C0E2FF200EE66E5450551059
:100238001AE0526A536A52505024E96E53505120C2
:10024800EA6EEE50200A03E1524A532AF4D7010E0F
:10025800525E000E535A52505024E16E53505120B2
:08026800E26E2D0EE66E12009D
:10027000939A939893909392939493968A9A8A9848
:100280008A968A948A928A90F0DEEFDEEEDE8A8287
:100290008A808A8AC7DE8A9AE8DE8A8AC3DE8A9AD8
:1002A000E4DE8A8ABFDE8A9AE0DE8A908A8ABADE33
:1002B0008A9ADBDE8A8AB6DE8A9A8A928A868A8A55
:1002C000B1DE8A9AD2DE8A968A808A8AABDE8A9AE0
:1002D0008A908A8AA7DE8A9AC8DE8A8AA3DE8A9AE8
:1002E0008A808A8A9FDE8A9AC0DE8A908A8A9ADE0B
:1002F0008A9A8A868A848A828A808A8A93DE8A9AFD
:06030000B4DE2C801200A7
:100306000900F5CFE6FF0006FBE10106F9E1120060
:100316000FD0800E3F6E19D0C00E3F6E16D0940ED1
:100326003F6E13D0D40E3F6E10D0800E3F6E0DD0B0
:100336003F50010AEEE03F50020AEEE03F50030A4A
:10034600EEE03F50040AEEE0F0D74004006E3F5066
:10035600002600C03FF000C058F0D7DE2C90436A5C
:1003660043504124E96E000E4220EA6EEE520BE045
:1003760043504124E96E000E4220EA6EEECF4EF065
:0A03860002DF432AEDD72C8012009D
:1003900043C04EF0000E4F6E470E506E000E516E71
:1003A000FBDE3FC001F040C002F04B50200A03E1E9
:1003B000300E446E02D04BC044F001C0E1FF02C0D9
:1003C000E2FF44C0E6FF010E3F24E16E000E402034
:1003D000E26E4CC0E6FF020E3F24E16E000E4020AC
:1003E000E26E3A0EE66E42C04EF0000E4F6E470EC1
:1003F000506E000E516ED0DE030E3F24016E000ED3
:100400004020026E4B50200A03E1300E456E02D0B0
:100410004BC045F001C0E1FF02C0E2FF45C0E6FF6E
:10042000040E3F24E16E000E4020E26E4CC0E6FF59
:10043000050E3F24E16E000E4020E26E3A0EE66E9D
:1004400041C04EF0000E4F6E470E506E000E516EC2
:10045000A3DE060E3F24016E000E4020026E4B50BC
:10046000200A03E1300E466E02D04BC046F001C0B8
:10047000E1FF02C0E2FF46C0E6FF070E3F24E16E47
:10048000000E4020E26E4CC0E6FF080E3F24E16EF5
:0A049000000E4020E26EE66A120042
:10049A00F8EC03F0376A386A396A3A6A3B6A3C6AA6
:1004AA00030E3D6E3E6A956A8C6A0F013A6BF70E2F
:1004BA009416C70ED56EF28AF294D5DE010E586EE6
:1004CA0022DE0C0E586E1FDEF28E010E366E030E01
:1004DA002B5C02E1E80E2A5C49E33650000AD8B4E4
:1004EA008B76372AE80E2A5E030E2B5A3C0E375CAF
:1004FA0002E3382A376A3C0E385C02E3392A386A42
:10050A00180E395CD8B0396A3650000A2DE13A061D
:10051A00800E3A18006E800E000A005C03E23B0E61
:10052A003A6E3B06800E3B18006E800E000A005C95
:10053A0003E23B0E3B6E3C06800E3C18006E800EBA
:10054A00000A005C02E2170E3C6E3A50000A0BE108
:10055A003B50000A08E13C50000A05E1020E366EE3
:10056A00FF0E8C6E8B863D803D82B1D73DA22AD08C
:10057A002D0E3F6E000E406E37C041F038C042F07B
:10058A0039C043F000DF010E3F6E050E406E2D0E9E
:10059A00416E000E426EBADEFD0E3D162D0E3F6E06
:1005AA00000E406E3AC041F03BC042F03CC043F0FE
:1005BA00EADE020E3F6E010E406E2D0E416E000EF7
:1005CA00426EA4DE3DA03CD02D0E3F6E000E406E62
:1005DA003AC041F03BC042F03CC043F0D4DE020EC8
:1005EA003F6E010E406E2D0E416E000E426E8EDE83
:1005FA00FE0E3D163650000A0AE1020E3F6E0C0E40
:10060A00406E1B0E416E000E426E80DE19D03650CF
:10061A00010A0AE1020E3F6E0C0E406E150E416E83
:10062A00000E426E73DE0CD03650020A09E1020E49
:10063A003F6E0C0E406E210E416E000E426E66DE5B
:10064A003E1C006E00508214016E01A40BD03E8441
:10065A00392A040E276E020E3D6E180E395CD8B088
:10066A00396A7CD03E1C006E00508214016E01A2D1
:10067A0010D03E82382A020E276E020E3D6E3C0EC4
:10068A00385C02E3392A386A180E395CD8B0396AFC
:10069A0065D03E1C006E00508214016E01A015D078
:1006AA003E80372A010E276E020E3D6E3C0E375CE5
:1006BA0002E3382A376A3C0E385C02E3392A386A80
:1006CA00180E395CD8B0396A49D03E1C006E005009
:1006DA008214016E01AC07D03E8C3C2A400E276E74
:1006EA00010E3D6E3BD03E1C006E00508214016E1E
:1006FA0001AA07D03E8A3B2A200E276E010E3D6EC4
:10070A002DD03E1C006E00508214016E01A807D045
:10071A003E883A2A100E276E010E3D6E1FD03E1CEF
:10072A00006E00508214016E01AE18D03E8E365013
:10073A00010A02E1366A11D03650000A07E1010EB9
:10074A00366E8B963A6A3B6A3C6A07D03650020A82
:10075A0004E1010E366E8B968C6A3D8082503E14FF
:10076A00006E00C03EF0001E2750001604E0276A03
:10077A00286A296A2CD0010E295C02E12C0E285C19
:10078A0026E32C0E285E010E295A27A404D0392A02
:10079A00020E3D6E0BD027A204D0382A020E3D6EFF
:1007AA0005D027A003D0372A020E3D6E27AE04D00B
:1007BA003C2A010E3D6E0BD027AC04D03B2A010E19
:1007CA003D6E05D027A803D03A2A010E3D6E7FD68A
:0207DA00FFD747
:1007F00010EE15F0130E006E010E016EDC0EF66E9B
:0E080000070EF76E000EF86E83EC01F012008A
:0607DC0020204F464600FC
:0607E2002020204F4E0014
:0607E800414C41524D009E
:0107EE00000A
:020000040030CA
:0D000100231F3CFFBF81FF0FC00FE00F4029
:00000001FF
