:0400000073EF02F0A8
:1000080000C017F001C016F002C015F09EAC0ED06B
:10001800C3CF23F0000E246EC4CF01F0006A005055
:10002800232601502422010E536E9E9C9EA416D0B6
:100038009E94BDA009D0BFCF32F0316ABE503112B4
:10004800000E3212BD900AD0BFCF56F0556ABE508E
:100058005512000E5612BD80010E306E17C000F00A
:0A00680016C001F015C002F01100EF
:0A007200210E0D6E0D2EFED71200B8
:10007C000F0E0C6E470E0D6E0D2EFED70C2EFCD7F0
:06008C000000000012005C
:0600920000000000120056
:10009800000180BF02D08A9601D08A8680BD02D036
:1000A8008A9401D08A8480BB02D08A9201D08A8245
:1000B80080B902D08A9001D08A8054B002D08A8850
:1000C80001D08A988A8AE1DF8A9A80B702D08A9614
:1000D80001D08A8680B502D08A9401D08A8480B300
:1000E80002D08A9201D08A8280B102D08A9001D04F
:1000F8008A8054B002D08A8801D08A988A8AC5DF5B
:0E0108008A9A54A002D0B6DF01D0AFDF1200F9
:10011600086A096A100E0C6E013408360936045056
:10012600085E0550D8A0053C095ED8B007D004503B
:1001360008260550D8B0053C0926D8900036013669
:060146000C2EEAD71200A6
:10014C0000017D6B050E7D5D0AE27D517B25E16E24
:10015C00000E7C21E26E200EE66E7D2BF3D77D51D6
:10016C007B25E16E000E7C21E26EE66A7D077D51F7
:10017C007B257E6F000E7C217F6F0A0E046E000EB5
:10018C00056E79C000F07AC001F0BFDF08C000F046
:10019C0009C001F0300E00267EC0E1FF7FC0E2FFF7
:1001AC0000C0E6FF0A0E046E000E056E79C000F06A
:1001BC007AC001F0AADF00C079F001C07AF0000E1D
:1001CC00011802E1000E001801E102D07D07CFD723
:0201DC0012000F
:0C01DE00549079C080F059DF548012006A
:1001EA006FC004F070C005F004C0E9FF05C0EAFF63
:1001FA00EE5203E0044A052AF7D704C002F005C00C
:10020A0003F0044A052A71C000F072C001F000012F
:10021A00714B722B00C0E9FF01C0EAFF02C0E1FF87
:10022A0003C0E2FFEECFE6FF02C0E9FF03C0EAFF28
:10023A00EE5201E0E2D76FC000F070C001F0120088
:10024A0010D0800E00016F6F1AD0C00E6F6F17D0DA
:10025A00940E6F6F14D0D40E6F6F11D0800E6F6F23
:10026A000ED000016F51010AECE06F51020AEDE075
:10027A006F51030AEDE06F51040AEDE0EFD7700504
:10028A00006E6F51002600C06FF000C080F0FFDEE4
:10029A005490736B73517125E96E000E7221EA6EE8
:1002AA00EE520BE073517125E96E000E7221EA6E6F
:0E02BA00EECF79F08FDF732BEDD7548012005A
:1002C800939A939893909392939493968A9A8A98F0
:1002D8008A968A948A928A90CDDECCDECBDE8A8298
:1002E8008A808A8AD2DE8A9AC5DE8A8ACEDE8A9A8D
:1002F800C1DE8A8ACADE8A9ABDDE8A908A8AC5DE0B
:100308008A9AB8DE8A8AC1DE8A9A8A928A868A8A14
:10031800BCDE8A9AAFDE8A968A808A8AB6DE8A9A94
:100328008A908A8AB2DE8A9AA5DE8A8AAEDE8A9A9C
:100338008A808A8AAADE8A9A9DDE8A908A8AA5DEBF
:100348008A9A8A868A848A828A808A8A9EDE8A9A99
:0603580091DE548012004A
:10035E000900F5CFE6FF0006FBE10106F9E1120008
:10036E000B6A0A6A096A00500402F4CF09F0F3CF4F
:10037E0008F001500502F4CF0BF0F3CF0AF0005055
:10038E000502F3500926F4500A22E86A0B220150A6
:10039E000402F3500926F4500A22E86A0B2208C020
:1003AE0000F009C001F00AC002F00BC003F0120009
:1003BE006FC004F070C005F004C002F005C003F079
:1003CE00044A052A71C000F072C001F00001714BA1
:1003DE00722B00C0E9FF01C0EAFF02C0E1FF03C0BB
:1003EE00E2FFEECFE6FF02C0E9FF03C0EAFFEE52E6
:0E03FE0001E0E2D76FC000F070C001F0120005
:10040C000001756B766B6FC077F070C078F0800E62
:10041C007019006E800E005C02E1000E6F5D0BE245
:10042C00010E756F000E766F6F510008776F70C0FC
:10043C0078F0000E785777C079F078C07AF071C0F8
:10044C007BF072C07CF07CDE060E736F000E746F56
:10045C00000E006E7451005C02E17351000819E249
:10046C0073517125E16E74517221E26E010E735D50
:10047C00006E000E7459016E00507125E96E01502A
:10048C007221EA6EEECFE6FF010E735F000E745B15
:10049C00DFD771C0E1FF72C0E2FF200EE66E75512E
:1004AC0076111AE0736B746B73517125E96E74518C
:1004BC007221EA6EEE50200A03E1734B742BF4D7D1
:1004CC00010E735F000E745B73517125E16E7451F4
:0A04DC007221E26E2D0EE66E120092
:1004E60021EC03F0BF0E946EFB0E0F013A6FA10EC6
:1004F600C06EC16A3D0EC26E050EBD6E496B130E0F
:10050600CD6E9E6A9D849D8CC00EF26E8B8CD9DE5C
:10051600010E0001806FBDDD0C0E806FBADD010E8D
:100526006F6F010E706F430E716F000E726F8ADE71
:10053600020E6F6F010E706F330E716F000E726FC9
:1005460081DEC2823050010A27E13150555C6F6F5F
:1005560032505658706F680E716F000E726F53DF0F
:10056600570E6F6F000E706F180E716F000E726F60
:1005760023DF570E6F6F000E706F680E716F000EDF
:10058600726F30DE010E6F6F010E706F570E716F56
:10059600000E726F57DE306A5350010A2FE123C0F6
:1005A60000F024C001F0050E046E000E056EDCDEC0
:1005B60000C06FF001C070F0680E716F000E726FB0
:1005C60022DF570E6F6F000E706F250E716F000ED3
:1005D600726FF2DE570E6F6F000E706F680E716FDE
:1005E600000E726FFFDD020E6F6F010E706F570EF9
:1005F600716F000E726F26DE536AC282A3D7FFD7D1
:1006420010EE18F03B0E006E010E016E060EF66EF5
:0E065200060EF76E000EF86EAFEC01F012000F
:0B0606004343505B6D6D5D203D200004
:020611000000E7
:0B0613004144435B6D6D5D203D200005
:01061E0000DB
:02061F000000D9
:1006210057616974696E6720414443202E2E2E0064
:1006310057616974696E6720434350202E2E2E0046
:020000040030CA
:0D000100231F3CFFBF81FF0FC00FE00F4029
:00000001FF
