:0400000053EF00F0CA
:1000080000C016F001C015F0F2A404D0194A1A2A4B
:10001800F29438D0F2A036D0196A1A6A81AE18D094
:100028000C0E1724016E000E1820026E01C017F086
:1000380002C018F0800E006E800E0218005C02E10B
:1000480001507A0804E27A0E176E000E186E19D065
:1000580081AC17D00C0E175C016E000E1858026E9A
:1000680001C017F002C018F0800E0218006E800E52
:10007800005C02E10C0E015C04E20C0E176E000E2F
:0E008800186EF29016C000F015C001F01100C5
:100096000900F5CFE6FF0006FBE10106F9E11200D3
:1000A6003D0E176E186A196A1A6A010E1B6ED58CF8
:1000B600D59AD596070ED512D66AD58EF28AF294BF
:1000C6003F0E0F01396FF286F290C00E626EF28E0D
:1000D600946A010E8B6E1A50181802E117501918FF
:1000E6001DE1196A1A6A1B50010A07E18BCF00F05D
:1000F6000036009000C08BFF06D08BCF00F0003298
:10010600009E00C08BFF8B50010A03E1010E1B6E9F
:1001160005D08B50800A02E1FF0E1B6EDCD7FFD79D
:020000040030CA
:0D000100331F3CFFBF81FF0FC00FE00F4019
:00000001FF
