:04000000C5EF01F057
:100008009EAC08D0C4CF8BFFC3CF8CFFC2829E9C0E
:06001800010E156E11003F
:06001E00000000001200CA
:100024000F0E0C6E470E0D6E0D2EFED70C2EFCD748
:06003400000000001200B4
:0A003A00210E0D6E0D2EFED71200F0
:10004400086A096A100E0C6E013408360936045029
:10005400085E0550D8A0053C095ED8B007D004500E
:1000640008260550D8B0053C0926D890003601363C
:060074000C2EEAD7120079
:10007A0030BE02D08A9601D08A8630BC02D08A94D9
:10008A0001D08A8430BA02D08A9201D08A8230B8EA
:10009A0002D08A9001D08A8016B002D08A8801D014
:1000AA008A988A8AB7DF8A9A30B602D08A9601D0AD
:1000BA008A8630B402D08A9401D08A8430B202D0BF
:1000CA008A9201D08A8230B002D08A9001D08A8086
:1000DA0016B002D08A8801D08A988A8A9BDF8A9AC7
:0C00EA0016A002D09ADF01D0A3DF1200A4
:0C00F600169029C030F0BEDF168012000A
:100102002D6A050E2D5C0AE22D502B24E16E000EA5
:100112002C20E26E200EE66E2D2AF3D72D502B24D2
:10012200E16E000E2C20E26EE66A2D062D502B2485
:100132002E6E000E2C202F6E0A0E046E000E056E1F
:1001420029C000F02AC001F07CDF08C000F009C01D
:1001520001F0300E00262EC0E1FF2FC0E2FF00C0EA
:10016200E6FF0A0E046E000E056E29C000F02AC0DA
:1001720001F067DF00C029F001C02AF0000E01186B
:1001820002E1000E001801E102D02D06CFD71200C5
:10019200939A939893909392939493968A9A8A9827
:1001A2008A968A948A928A903CDF3BDF3ADF8A827F
:1001B2008A808A8A33DF8A9A34DF8A8A2FDF8A9A90
:1001C20030DF8A8A2BDF8A9A2CDF8A908A8A26DF9E
:1001D2008A9A27DF8A8A22DF8A9A8A928A868A8A7A
:1001E2001DDF8A9A1EDF8A968A808A8A17DF8A9A98
:1001F2008A908A8A13DF8A9A14DF8A8A0FDF8A9AA0
:100202008A808A8A0BDF8A9A0CDF8A908A8A06DFC2
:100212008A9A8A868A848A828A808A8AFFDE8A9A6F
:0602220000DF168012004F
:100228000900F5CFE6FF0006FBE10106F9E112003F
:100238000FD0800E1F6E19D0C00E1F6E16D0940EF0
:100248001F6E13D0D40E1F6E10D0800E1F6E0DD0EF
:100258001F50010AEEE01F50020AEEE01F50030A89
:10026800EEE01F50040AEEE0F0D72004006E1F50A5
:10027800002600C01FF000C030F0FBDE1690236A95
:1002880023502124E96E000E2220EA6EEE520BE084
:1002980023502124E96E000E2220EA6EEECF29F0C9
:0A02A80026DF232AEDD7168012008E
:1002B200256A266A1FC027F020C028F0800E201869
:1002C200006E800E005C02E1000E1F5C0BE2010E6C
:1002D200256E000E266E1F500008276E20C028F0E3
:1002E200000E285627C029F028C02AF021C02BF082
:1002F20022C02CF005DF060E236E000E246E000EC7
:10030200006E2450005C02E12350000819E22350E1
:100312002124E16E24502220E26E010E235C006E45
:10032200000E2458016E00502124E96E0150222053
:10033200EA6EEECFE6FF010E235E000E245ADFD7EF
:1003420021C0E1FF22C0E2FF200EE66E25502610FA
:100352001AE0236A246A23502124E96E24502220C1
:10036200EA6EEE50200A03E1234A242AF4D7010E52
:10037200235E000E245A23502124E16E24502220B1
:08038200E26E2D0EE66E120082
:10038A00156A946A956A010EC26E210EC06E9D8C22
:10039A009E9CF28CF28EF8DE010E306E69DE0C0E37
:1003AA00306E66DEC28215525BE0C4CF1FF0000ECB
:1003BA00206E1F361F9020361F361F902036170ECC
:1003CA00216E000E226E70DF010E1F6E010E206E6E
:1003DA00170E216E000E226E2ADF060E006EC3CFA4
:1003EA001FF0000E206E005004E01F321F9EFF0F08
:1003FA00FBD7000E206E170E216E000E226E54DF00
:10040A00010E1F6E090E206E170E216E000E226E4F
:10041A000EDFC4CF1FF0000E206E1F361F9020364D
:10042A001F361F902036060E016EC3CF00F0015012
:10043A0004E00032009EFF0FFBD700501F26000E7B
:10044A002022170E216E000E226E2EDF020E1F6E64
:10045A00010E206E170E216E000E226EE8DE156A5E
:04046A00A2D7FFD73F
:020000040030CA
:0D000100231F3CFFBF81FF0FC00FE00F4029
:00000001FF
